:020000040800F2
:10000000E08600209D010008CF2600089F220008FE
:10001000CD2600085D050008AD3C0008000000008A
:10002000000000000000000000000000412D00085A
:100030007D0A0008000000007D29000871300008DA
:10004000B7010008B7010008B7010008B7010008B0
:10005000B7010008B7010008B7010008B7010008A0
:10006000B7010008B7010008B7010008B701000890
:10007000B7010008B7010008B7010008B701000880
:10008000B7010008B7010008B7010008B701000870
:10009000B7010008B7010008B7010008B701000860
:1000A000B7010008B7010008B7010008B701000850
:1000B0004D31000859310008B7010008B7010008A8
:1000C000B7010008B7010008B7010008E92A0008D5
:1000D000B7010008B7010008B7010008B701000820
:1000E000B7010008B7010008B7010008B701000810
:1000F000B7010008B7010008B7010008B701000800
:10010000B7010008B701000865310008B701000811
:10011000B7010008B7010008B7010008B7010008DF
:10012000B7010008B7010008B7010008B7010008CF
:10013000B70100080000000000000000B70100083F
:10014000B7010008B7010008B7010008B7010008AF
:10015000B7010008B7010008B7010008B70100089F
:10016000B7010008B7010008B7010008B70100088F
:10017000B7010008B70100080000000000000000FF
:10018000B7010008B7010008DFF80CD000F0AEF9A5
:1001900000480047253D0008E086002006488047CB
:1001A00006480047FEE7FEE7FEE7FEE7FEE7FEE75C
:1001B000FEE7FEE7FEE7FEE7F930000889010008E8
:1001C0002DE9F05F0546002092469B46884606468C
:1001D000814640241BE0284641464746224600F01F
:1001E000E0F853465A46C01A914110D311461846BA
:1001F000224600F0C7F82D1A67EB01084F46224649
:100200000120002100F0BEF817EB00094E41201E2E
:10021000A4F10104DFDC484631462A464346BDE8E6
:10022000F09FD2B201E000F8012B491EFBD27047CB
:100230000022F6E710B513460A4604461946FFF7B2
:10024000F0FF204610BD2DE9FE4F81EA030404F0C3
:10025000004421F0004100944FF0000B23F00043D4
:1002600050EA01045ED052EA03045BD0C3F30A549F
:10027000C1F30A552C44A4F2F3340194A0FB0254B8
:10028000C1F3130141F48011C3F3130343F480134A
:1002900001FB024400FB034E840A970A44EA81549E
:1002A00047EA8357A4FB076802958D0A05FB07857B
:1002B0004FEA932C04FB0C542705029D4FEA065885
:1002C00047EA1637B5EB08056EEB070C870E920E62
:1002D00047EA811742EA8312A7FB0201B6EB0B0142
:1002E00064EB00042B0D43EA0C335E1844EB1C5006
:1002F000DA465146E7FB0201C5F313044FEA0B331C
:1003000043EA14534FEA0432019C43EA0603A4F182
:100310000C040294009CCDE900B400F098F803B0FE
:10032000BDE8F08F00200146F9E70EB5C10F80EA65
:10033000E0700844CA07002140F233438DE80E0004
:100340000A460B4600F083F803B000BD01F00043FD
:1003500030B421F0004150EA010206D00A0DA2F5A6
:100360006072C1F31301002A02DC30BC0020704728
:10037000440F44EAC104C100E01830BC00EBC25095
:1003800000F01FB8202A04DB203A00FA02F1002016
:1003900070479140C2F1200320FA03F319439040C3
:1003A0007047202A04DB203A21FA02F0002170472E
:1003B00021FA02F3D040C2F12002914008431946CD
:1003C00070470029A8BF7047401C490008BF20F0B3
:1003D0000100704710B4B0FA80FC00FA0CF050EA4B
:1003E000010404BF10BC704749B1CCF1200421FACC
:1003F00004F411FA0CF118BF012121430843A3EBC7
:100400000C01CB1D4FEA00614FEA102042BF0020D3
:1004100010BC704700EBC35010440029A4BF10BCAF
:100420007047401C490008BF20F0010010BC704715
:1004300010B5141E73F1000408DA401C41F10001EC
:1004400092185B411A4301D120F0010010BD2DE943
:10045000F04D92469B4611B1B1FA81F202E0B0FA3A
:1004600080F220329046FFF78DFF04460F4640EAA7
:100470000A0041EA0B0153465A46084313D011467D
:1004800053EA010019D0C8F140025046FFF789FF36
:1004900005460E46504659464246FFF773FF08434D
:1004A00005D0012004E020463946BDE8F08D00204B
:1004B000054346EAE0762C4337430A986305E40A8D
:1004C000A0EB08000022FD0A44EA47540A3002D596
:1004D00000200146E9E7010510196941DDE90845F9
:1004E00000196941BDE8F04DA2E70000064C074D38
:1004F00006E0E06840F0010394E8070098471034F4
:10050000AC42F6D3FFF744FE4442000864420008C0
:1005100070B5104C607D00281AD000210E4801F003
:100520007DFE054604210C4801F078FE85420BD281
:10053000A17D49B12168084420606068284460605A
:100540002069401C206101E00120A0750020607539
:1005500070BD00006C0000209C810020FEE70000C0
:100560002DE9F04F00262DED028B83B0894607461A
:100570003546B346B0469FED7D0A7D4C019603207B
:1005800084ED040A03F08AFD00204FF4806104EB3F
:1005900080028A461162401C8842F8DB7449384662
:1005A0002031009102F028F90746724A0020D44613
:1005B00004EB800101F50051924691ED080A10EE1E
:1005C000103A934202DD08F101080AE091ED080AB1
:1005D000694B10EE101A994202DA0BF1010B00E0A0
:1005E0006D1C401C6045E3DBC34502DD9FED638A63
:1005F00001E09FED638ADFF88CB1012039E000BF94
:1006000030EE080A032084ED040A03F047FD384663
:10061000009902F0F1F8294607460025DFF858C195
:10062000284653464FF4806E04EB800202F50052D8
:1006300092ED080A10EE108A984506DC92ED080A41
:1006400010EE102A624500DB6D1C401C7045EBDB90
:10065000681A03D5C82901DD01200190B9F1000F06
:1006600003D03846009902F0DDFB01980028C4D081
:10067000002094ED040A10EE101A594501D2012110
:1006800000E0002194ED040A084010EE101AB1F1C8
:10069000814F01DA012100E0002194ED040A0842B3
:1006A000AED130EE480A032084ED040A03F0F6FCD4
:1006B000DFF8D4B0A2464FF480653846009902F0C6
:1006C0009BF80024074622460AEB820101F5005000
:1006D00090ED080A10EE10CADC4507DB90ED080A21
:1006E000DFF8A88010EE10CAC4450ADDD1F820C09A
:1006F000BCF1000F05DDD1F8208040F2FF7CE04521
:1007000000DB641CD04690ED080A00F0EFF80B6A9D
:1007100018440862086AB0F5006F02DB40F2FF700F
:1007200003E0086A002801DA00200862521CAA428D
:10073000CADB761CB9F1000F03D03846009902F0ED
:1007400071FBAC4201DA192EB7DB00204FEA080238
:1007500002EB80010B6A01F580510B62401CA8423C
:10076000F6DB03B0BDEC028BBDE8F08F00000000AB
:10077000880000209A99593F9A99193ECDCCCCBD5A
:10078000CDCCCC3D000080C08FC2F53EB81E053FE9
:100790002DE9F84F284C064604F58150DFF89C906F
:1007A00000254FF4006A40F2FF7B4FF48067009011
:1007B0003046009902F020F8002306464FEA030273
:1007C00004EB820101F5005090ED080A10EE10CA0A
:1007D000CC4507DB90ED080ADFF8648010EE10CA04
:1007E000C4450ADD01F5805CDCF82080B8F1000F1B
:1007F00003DDDCF82080D84500DB5B1C90ED080AA7
:1008000000F074F801F58051D1F820C0604408620E
:10081000086A504501DB584603E0086A002801DAFF
:1008200000200862521CBA42CADB6D1CBB4201DACE
:10083000192DBDDBBDE8F88F880000208FC2F53E82
:10084000B81E053F2DE9F84F254C804604F5815030
:100850000027DFF8909004F500553E464FF4006BFA
:1008600040F2FF7A04F58054009010221146404671
:10087000009B02F025F895ED080A804610EE100A5C
:10088000484506DB95ED080A174910EE100A884224
:1008900007DDD4F86008002803DDD4F8601851455E
:1008A00000DB012795ED080A00F020F8D4F8601865
:1008B0000844C4F86008D4F86008584501DB504685
:1008C00004E0D4F86008002802DA0020C4F86008C8
:1008D000761C002F01D10A2EC7DBBDE8F88F00007F
:1008E000880000208FC2F53EB81E053FF6EE000AD4
:1008F00030EEC00ADFED040A20EE200ABDEEC00A89
:1009000010EE100A7047000000002F432DE9F04759
:1009100000252DED028B82B0B0EE408A82462C4637
:100920002946FFF71DFE1D4801F02AF91B4E00273E
:10093000306847621A4800970197D0F86038102253
:100940001146012003F058FBF0EE000A49F232692B
:10095000B84628EE208A0FE04F46504601F0E0FEF0
:100960003068406A2044B842F7DB3268C2F824801D
:10097000A0F51644323C6D1C00EE105AB8EEC00AC9
:10098000B4EEC08AF1EE10FAE6DC02B00348BDEC2A
:10099000028BBDE8F04701F016B900005C82002030
:1009A000880000202DE9F047324C304F81462DED74
:1009B000028B00259FED2E8A4FF4806604F12008FB
:1009C0004146484601F018FF8146414602F0F4F9DD
:1009D00010EE100AB84201D1012524E010EE100AF1
:1009E000B0F1404F0AD010EE100A10F17F5F0CD02A
:1009F00010EE100A10F17E5F0CD014E094ED040AA2
:100A0000DFED1D0A30EE200A08E094ED040A30EE16
:100A1000080A03E094ED040A30EE480A032084ED4E
:100A2000040A03F03BFB002104EB810202F50050B5
:100A300090ED080AFFF75AFF00EE100A106AB8EEB0
:100A4000C00A00EE900AF8EEE00A30EE800ABDEE31
:100A5000C00A10EE100A1062491CB142E4DB002DFE
:100A6000AED0BDEC028BBDE8F0870000000080BF77
:100A7000CA54413C880000206F12833A704700003E
:100A800031B5084D6C6800F0A1FB0749B0FBF1F0EF
:100A900000994843009068680099001B8842FAD387
:100AA00038BD0000001000E040420F0010B502F019
:100AB000BBFA084801210175017D0029FCD10160C4
:100AC00041600161017541758175BDE8104002F01A
:100AD000BDBA00006C00002038B59FED0F0A6C46CF
:100AE0008DED000AFFF7E2FF2246042311460B4872
:100AF00000F018FF0A4C01220821204600F0FDF901
:100B0000084908780028FCD0002008700246082117
:100B1000204600F0F2F938BD000048C2EC80002009
:100B200000000240080000202DE9F04106460024A4
:100B3000304601F0CDFD641C052CF9DB164C00207D
:100B40004FF4806504EB80010A6A0A320A62401C95
:100B5000A842F7DB0027304601F0BAFD7F1C052FC5
:100B6000F9DB002004EB80010A6A143A0A62401C97
:100B7000A842F7DB0027304601F0AAFD7F1C052FB5
:100B8000F9DB002004EB80010A6A0A320A62401C89
:100B9000A842F7DBBDE8F0818800002070B54379FA
:100BA000012B1AD0012646710223037105682C68B7
:100BB00040F6FE7393409C43D1E900310B439340D0
:100BC00023432B6001680B68C0249440A3430B604F
:100BD000067100214171084670BD022070BD70B5DC
:100BE000040003D02079002510B105E0012070BD7C
:100BF0006571204600F008F802202071256101206F
:100C00002071002070BD000010B586B0044614218C
:100C10006846FFF70DFB1149206888421CD1104837
:100C20000021026842F000520260006800F00050AB
:100C300005900B481038026842F00102026000681B
:100C400000F001000590102000900320CDE9010183
:100C50006946044800F074F806B010BD0074004006
:100C6000403802400000024018B504680094006853
:100C7000104421B1143000900360002018BD0830EA
:100C8000F9E730B54279012A16D0012242710223D8
:100C9000037103681D6802FA01F425431D600029F1
:100CA00001680B680AD00C6803F4802304F4601414
:100CB000B3F5802F0FD015E0022030BD0C6803F093
:100CC000040304F03804042B0CD1382C0AD14B68EF
:100CD00043F0010305E0B4F5601F03D14B6843F016
:100CE00002034B60027100214171084630BD90F84B
:100CF0003510022903D0802141650120704705216C
:100D000080F835100068016821F0010101600020C1
:100D100070470000EFF3058141B14FF0E02100285A
:100D20000AD00A69D203FAD5401EF8E7034A51688F
:100D300053685B1A8342FBD3704700000000002019
:100D40002DE9F84FDFF87CB100224FF001084FF099
:100D5000030A4FF00F090BF1040E00BF0B6808FAED
:100D600002F42340A3426ED14D68022D01D0122D12
:100D70000ED1D50800EB850CDCF820505607F70E95
:100D800009FA07F6B5430E69BE402E43CCF8206041
:100D9000066855000F790AFA05FC07F0030726EAF2
:100DA0000C06AF40374307604E68012E05D0022E77
:100DB00003D0112E01D0122E0ED18668CF6826EAFC
:100DC0000C06AF40374387604668A6430C79C4F3EE
:100DD0000014944034434460C6688C6826EA0C06CC
:100DE000AC403443C4604C68E40065D5364C25689B
:100DF00045F480452560246822F0030504F480440E
:100E00000094324C2E19D6F8084895072F0F09FA8E
:100E100007F5AC432E4DA84201D1002524E02D4D0D
:100E2000A84201D101251FE02B4DA84201D1022586
:100E30001AE02A4DA84201D1032515E0284DA84209
:100E400002D1042510E037E0264DA84201D1052546
:100E50000AE0254DA84201D1062505E0234DA84210
:100E600001D1072500E00825BD402543C6F80858F4
:100E7000DBF800405D464E689C43F60300D51C43FA
:100E80002C60DEF8004075464E689C43B60300D5E2
:100E90001C432C600B4D08352C684E689C43F602B1
:100EA00000D51C432C60074D0C352C684E689C43C4
:100EB000B60200D51C432C60521C102AFFF44EAF22
:100EC000BDE8F88F003C014044380240003001404A
:100ED000000002400004024000080240000C0240F2
:100EE000001002400014024000180240001C0240A2
:100EF0000069084000D0012070470AB18161704745
:100F00000904FBE70148406870470000000000202A
:100F100070B517484168491C4160016811B101680A
:100F2000491E01600024134E1CE000BF06EB84053F
:100F30006968A9B10878800712D5886810B1401E89
:100F400088600DD16868D0E90321904768684168DE
:100F5000816069680878C20702D120F00200087039
:100F6000641CE4B23078A042E0D802F008FB70BD07
:100F700000000020380000200B4810B5016841F443
:100F800000710160016841F480610160016841F411
:100F900080710160032000F06FF8002000F006F877
:100FA00000F024F8002010BD003C024070B50D4D4B
:100FB00004464FF47A712878B1FBF0F00A490968C9
:100FC000B1FBF0F000F00AFD48B9102C07D2002266
:100FD0002146501E00F030F800206C6070BD0120EA
:100FE00070BD000028000020340000200A4808B529
:100FF000016841F480410160006800F48040009085
:101000000548001F016841F080510160006800F050
:101010008050009008BD000044380240002809DBE1
:1010200000F01F02012191404009800000F1E02002
:10103000C0F8001170470000F0B40E4B1B680C465E
:10104000C3F30223C3F10705042D00D90425191D9C
:10105000072901D2002300E0DB1E012606FA05F174
:10106000491E214099409E40761E16403143F0BCF7
:1010700002F032BE0CED00E0064900F007020868FD
:101080004FF6FF03184040EA0220034A104308606D
:10109000704700000CED00E00000FA052DE9F04774
:1010A0000E46050065D0DFF81481D8F80000F7B2CD
:1010B00000F00F00B04207D288F80070D8F80000A6
:1010C00000F00F00B04254D128683D4C810712D582
:1010D000400703D5206840F4E050206028780007DE
:1010E00003D5206840F4604020602068A96820F0A3
:1010F000F000084320602878C0072DD03049686888
:101100000839012812D0022813D0032811D0096809
:10111000890700292DDA216821F0030101432160AC
:10112000FFF7F0FE814641F2883A0EE00968890334
:10113000EFE709688901ECE7FFF7E4FEA0EB09019E
:10114000514502D90320BDE8F0872068696800F0A6
:101150000C00B0EB810FEFD1D8F80010404601F041
:101160000F01B14207D90770006800F00F00B042CC
:1011700001D00120E7E72878400705D52068E96815
:1011800020F4E050084320602878000706D5206846
:10119000296920F4604040EAC100206000F01CF89A
:1011A0002168084AC1F30311515CC8400649086030
:1011B0000020FFF7FBFE0020C5E70000003C0240D6
:1011C000083802403442000834000020014800681A
:1011D0007047000034000020154810B5006810F07A
:1011E0000C02144813D01449042A0FD0082A0ED137
:1011F0000F4C241F2268236802F03F025B0207D5D0
:101200002068C0F38810A0FB010106E0084610BD6D
:101210002168C1F38811A1FB00010023FEF7D0FF74
:101220002168C1F30141491C4900B0FBF1F010BD38
:10123000083802400024F40040787D012DE9F84F81
:10124000050076D02878DFF8F8B2BE4CC00749D048
:10125000DBF800105846C1F38101012908D000686D
:10126000C0F3810002280AD1201D0068400206D583
:101270002068800336D568680028E2D032E06868CC
:10128000B0F5803F10D0B0F5A02F206810D020F42A
:1012900080302060206820F4802020606868A0B141
:1012A000FFF730FE06460CE0206840F48030F4E79B
:1012B00040F480202060F7E7FFF724FE801B6428BD
:1012C00073D820688003F7D50CE0FFF71BFE0646B5
:1012D00005E000BFFFF716FE801B6428F0D82068E9
:1012E0008003F7D42878DFF8608280074FF0000988
:1012F0003ED5DBF80010584611F00C0F09D00068FD
:10130000C0F3810002280BD18D48001F0068400205
:1013100006D42068800715D5E868012809D111E0B6
:10132000E868B8B10120C8F80000FFF7EBFD0646F9
:1013300005E002E1FFF7E6FD801B0228C0D8206827
:101340008007F7D52068296920F0F80040EAC1003D
:1013500020600DE0C8F80090FFF7D4FD064604E0D9
:10136000FFF7D0FD801B02281FD820688007F7D424
:101370002878000722D5724E744869696C3671B1BD
:1013800001210160FFF7BEFD074604E0FFF7BAFD4B
:10139000C01B022809D830688007F7D50EE0C0F8D6
:1013A0000090FFF7AFFD074605E083E0FFF7AAFDD9
:1013B000C01B02287ED830688007F7D42878400701
:1013C00068D5DFF87CA100270AF1380ADAF80000B6
:1013D000C0000BD4DAF8001041F08051CAF80010B8
:1013E000DAF80000012700F080500090584E306875
:1013F000C00510D4306840F480703060FFF782FD83
:10140000009005E0FFF77EFD0099401A022851D8B0
:101410003068C005F6D54A4EA868683601280FD056
:101420000528306810D020F001003060306820F0CE
:1014300004003060A868B8B1FFF764FD00900FE0C9
:10144000306840F00100F4E740F004003060F7E756
:10145000FFF758FD0099411A41F28830814264D863
:1014600030688007F4D50EE0FFF74CFD009007E0F0
:10147000FFF748FD0099411A41F28830814254D863
:1014800030688007F4D42FB1DAF8001021F08051D1
:10149000CAF80010A869C0B3DBF80010C1F38101DD
:1014A00002294AD00228484607D0C8F86000FFF752
:1014B00029FD00E039E005463AE04746C8F86000FB
:1014C000FFF720FD064604E0FFF71CFD801B022805
:1014D0002BD820688001F7D4D5E907010843A96A11
:1014E0001C4A490802EB01416A6A41EA8211084339
:1014F00095F82C1040EA01611148001F016001209D
:101500003866FFF7FFFC054605E014E0FFF7FAFC3C
:10151000401B022809D820688001F7D50BE000BFE6
:10152000FFF7F0FC401B022802D90320BDE8F88F2A
:1015300020688001F4D40020F8E70120F6E70000DD
:10154000083802400038024000004742800E4742FF
:10155000007000400000FFFF7047000038B50168D0
:1015600004464A688868C043430606D5C30704D1C9
:10157000D3435B0601D4216C05E0830708D4D34331
:101580001B0605D4616C01B02046BDE83040084719
:10159000830603D5430601D5C30551D4D3439B0627
:1015A0004ED443060AD494F85130032B49D0636DCE
:1015B00043F004036365CB688B680093830609D40A
:1015C000636D43F0010363658B6800930B6823F040
:1015D00040030B60C00506D4606D40F008006065F4
:1015E000206880680090606D002829D020684168DC
:1015F00021F0E0014160012084F85100900701D4FE
:10160000D00722D02068416821F003014160114DCC
:10161000E06C40B10565E06CFFF769FB18B1606DE7
:1016200040F040006065A06C002809D00565A06C02
:10163000FFF75DFB002803D0606D40F0400060655F
:1016400038BDC8688868009038BD2046FFF784FF21
:1016500038BD0000452C000870B5040005D00025F9
:10166000A56294F8510010B106E0012070BD84F825
:101670005050204600F030F8022084F851002068D5
:10168000016821F040010160D4E901010843D4E977
:1016900003121143084361690843218B01F400716F
:1016A0000843E1690843216A0843A16A08432168A5
:1016B0000860A069042101EA1040616A08432168BA
:1016C00048602068C16921F40061C161656501203D
:1016D00084F85100002070BDF0B587B00446142195
:1016E0006846FEF7A5FD314A2168002430480225EE
:1016F00003260527914226D12D4914310A6842F468
:1017000080520A60096801F480510591016841F036
:1017100001010160006802AA00F00100059048F292
:10172000E000CDE9000582E8D00069462148FFF7D6
:1017300007FB002211462320FFF77EFC2320FFF742
:101740006DFC07B0F0BD1C4A9142FAD11849103126
:101750000A6842F480420A60096801F480410591F8
:10176000016841F004010160016801F00401059184
:10177000016841F002010160006802AA00F0020065
:1017800005900C20CDE9000582E8D00069460B48A1
:10179000FFF7D6FA4FF48060CDE9000502AA69464A
:1017A00082E8D0000648FFF7CBFACAE700300140D4
:1017B000303802400000024000380040000802407B
:1017C0000004024070472DE9F84F044690F850009D
:1017D00000271D461646894601280DD04FF0010B03
:1017E00084F850B0FFF78EFB804694F85100BA465B
:1017F000012804D002278EE00220BDE8F88FB9F15D
:10180000000F7DD0002E7BD0032084F85100C4F857
:1018100054A0C4F83090A686E686C4F838A0A4F890
:101820003CA0A4F83EA0C4F844A0C4F840A0A0681E
:10183000B0F5004F04D12068016841F48041016097
:1018400020680168490603D4016841F04001016045
:10185000E068B0F5006F606803D030B3012E24D08B
:1018600040E008B1012E1CD1206B21680088C860BF
:1018700006E020688168890709D5216B0988C16065
:10188000206B801C2063E08E401EE08609E0FFF79D
:1018900039FBA0EB0800A84202D3681C01D031E05C
:1018A0007DB3E08E0028E4D11FE0206B2168007832
:1018B000087306E020688168890709D5216B0978DB
:1018C0000173206B401C2063E08E401EE08609E01F
:1018D000FFF718FBA0EB0800A84202D3681C01D058
:1018E00010E075B1E08E0028E4D14246294620463A
:1018F00001F0B0F908B120206065A06820B107E0D0
:1019000008E0FFE7032706E02068C16880680090D0
:10191000606D00B1012784F851B084F850A03846BA
:101920006BE70000F0B590F850500024012D0CD06A
:10193000012580F8505090F8515000264768012D3D
:101940000BD0B7F5827F06D101E00220F0BD876899
:101950000FB9042D01D0022429E0A9B1A2B19BB195
:1019600090F85150042D02D0052580F8515046655D
:1019700001638386C38682638387C387C16829B175
:101980000D4901640D4904E0012410E00C49016493
:101990000C49416401684A6842F0E0024A6001680B
:1019A0000A68520603D40A6842F040020A6080F8CE
:1019B00050602046F0BD0000F52A0008552B0008B5
:1019C000252B0008852B0008034801210170416880
:1019D000491C4160704700000800002010B5401EFF
:1019E000B0F1807F01D3012010BD4FF0E024606191
:1019F0000F21601702F070F90020A061072020611C
:101A0000002010BD7047704770B590F83C20012A47
:101A100019D0012400F83C4F0222427050F83C3C9F
:101A20005A689D6822F070060A684968324325F0BA
:101A3000800529435A6050F83C2C91604470002185
:101A40000170084670BD022070BD10B5040003D0BF
:101A500094F83D0010B107E0012010BD002084F88B
:101A60003C00204600F00CF8022084F83D00211DC7
:101A7000206801F07DFB012084F83D00002010BDAE
:101A8000F0B587B0044614216846FEF7D1FB374B0A
:101A9000246800253549103B022201263448B4F160
:101AA000804F15D0334FBC4231D1086840F002005E
:101AB00008600868002200F00200059011461D2011
:101AC000FFF7BAFA5FF01D00FFF7A8FA07B0F0BD04
:101AD0000C6844F001040C60096801F001010591F3
:101AE000196841F00101196019680092CDE90125DA
:101AF00001F00101CDE9046103956946FFF720F982
:101B0000002211461C20FFF797FA1C20DCE71A4F31
:101B1000BC421ED10C6844F008040C60096801F056
:101B200008010591196841F00101196019680096D2
:101B3000CDE9012501F00101CDE9042103956946B4
:101B4000FFF7FEF8002211463220FFF775FA322027
:101B5000BAE70A488442B9D1086840F0200008601A
:101B6000086800F020000590B0E70000403802400F
:101B70000000024000040040000C0040001400403F
:101B8000022180F83D1001688A6802F00702062AE7
:101B900003D00A6842F001020A60012180F83D107A
:101BA000002070470168CA6842F00102CA600068FC
:101BB000816801F00701062903D0016841F00101A5
:101BC000016000207047022180F83D1001680A6A18
:101BD00041F211131A4207D10A6A9B101A4203D12B
:101BE0000A6822F001020A60012180F83D100020FD
:101BF00070470168CA6822F00102CA600068016A81
:101C000041F21112114207D1016A9210114203D11F
:101C1000016821F0010101600020704770B50446A1
:101C200090F83C00012817D0012584F83C50022090
:101C300084F83D002068826822F0770222F47F4217
:101C400082600868502830D00DDC20284DD005DC9B
:101C500098B310283BD148E0022070BD302844D012
:101C6000402834D139E0602828D0702806D0B0F55B
:101C7000805F2CD0B0F5005F29D10AE0CB68D1E9B4
:101C80000121206801F0E5FA2068816841F07701C0
:101C900009E0CB68D1E90121206801F0DAFA206877
:101CA000816841F48041816011E0CA684968206818
:101CB00001F0E7FB5021206807E016E0CA68496898
:101CC000206801F02FFC6021206801F0CCFA84F834
:101CD0003D50002084F83C0070BDCA684968206807
:101CE00001F0CFFB40212068EFE722680146104653
:101CF000EBE700000349884202D1034901204875FF
:101D0000704700009C8100206C0000202DE9F0410C
:101D1000044690F83C000D4601283DD0012684F889
:101D20003C60022084F83D00AAB3042A46D0206813
:101D3000082A55D0D5E90027E968036A23F48053BF
:101D40000362D0F81CC0036A2CF4407C4CEA0727DD
:101D50004FF6FF7C27F470470CEA013139434FF40A
:101D6000204723F4204307EA02321A43C16102628A
:101D70002068C16921F44061C1612068C169AA6815
:101D800041EA0221C0F81C1084F83D60002084F86C
:101D90003C00BDE8F08101E00220FAE7D5E900123D
:101DA000EB68206801F07EFB2068816921F00C015E
:101DB000816120688169AA6811430FE0D5E90012AA
:101DC000EB68206801F0C0FB2068816921F4406164
:101DD000816120688169AA6841EA02218161D3E7B3
:101DE000D5E9002C2F7B016A21F480710162C16961
:101DF000036A21F0030141EA0C0121F0F00C3907DC
:101E00004FF420674CEA116123F4206307EA0222B1
:101E10001A43C16102622068C16921F00C01C161ED
:101E20002068C169AA681143ACE710B5040003D06B
:101E300094F83D0010B107E0012010BD002084F8A7
:101E40003C00204600F00CF8022084F83D00211DE3
:101E5000206801F08DF9012084F83D00002010BDBC
:101E6000704710B50268044631B1042908D008292A
:101E70001AD00C2908D11BE0D06840F0020002E023
:101E8000D06840F00400D0600122206801F0D4F94D
:101E90002068816801F00701062903D0016841F03C
:101EA00001010160002010BDD06840F00800EAE7A1
:101EB000D06840F01000E6E710B50268044631B182
:101EC000042908D008291ED00C2908D11FE0D068A9
:101ED00020F0020002E0D06820F00400D060002270
:101EE000206801F0A9F92068016A41F2111211423B
:101EF00007D1016A9210114203D1016821F001015A
:101F00000160002010BDD06820F00800E6E7D0682E
:101F100020F01000E2E770B50446006801694FF058
:101F20000005C943890715D4C168C943890711D47D
:101F3000E91E016101202077206880698007204622
:101F400002D0FFF7D7FE04E000F0C2F8204600F010
:101F500057F9257720680169C943490717D4C16833
:101F6000C943490713D46FF00401016102202077AF
:101F70002068806910F4407F204602D0FFF7BAFE47
:101F800004E000F0A5F8204600F03AF92577206833
:101F90000169C943090716D4C168C943090712D4A6
:101FA0006FF008010161042020772068C069800774
:101FB000204602D0FFF79EFE04E000F089F820469C
:101FC00000F01EF9257720680169C943C90617D4B6
:101FD000C168C943C90613D46FF01001016108201C
:101FE00020772068C06910F4407F204602D0FFF7B8
:101FF00081FE04E000F06CF8204600F001F925773E
:1020000020680169C943C90708D1C168C943C90724
:1020100004D1891E0161204600F0F4F820680169AE
:10202000C943090609D4C168C943090605D46FF03C
:10203000800101612046FFF7E5FC20680169C94382
:10204000490609D4C168C943490605D46FF0400167
:102050000161204600F022F920680169C943890620
:102060000BD4C168C943890607D46FF02001016110
:102070002046BDE87040FFF7C6BC70BD10B586B005
:10208000044614216846FEF7D3F80E4920688842BA
:1020900015D10D480021026842F00102026000687B
:1020A00000F001000590042000900220CDE901011C
:1020B0000320CDE9031069460448FEF741FE06B04F
:1020C00010BD0000004001403038024000000240D6
:1020D000704770B5044690F83C000D4601280DD0BD
:1020E000012684F83C60022084F83D0042B1042AB5
:1020F00018D0082A2AD00C2A4DD139E0022070BD10
:10210000206801F0B9F82068816941F00801816117
:102110002068816921F004018161206881692A6950
:10212000114311E0206801F0D7F82068816941F47B
:10213000006181612068816921F48061816120688A
:1021400081692A6941EA0221816124E0206801F065
:10215000F9F82068C16941F00801C1612068C169CE
:1021600021F00401C1612068C1692A69114311E0AD
:10217000206801F01BF92068C16941F40061C16168
:102180002068C16921F48061C1612068C1692A6940
:1021900041EA0221C16184F83D60002084F83C00DE
:1021A00070BD10B5040003D094F83D0010B107E0F5
:1021B000012010BD002084F83C00204600F00CF8FF
:1021C000022084F83D00211D206800F0D1FF01208D
:1021D00084F83D00002010BD08B50068064988421B
:1021E00008D10648016841F480310160006800F4BC
:1021F0008030009008BD000000400140443802409B
:10220000704700000349884202D103490020087545
:1022100070470000DC8100206C0000200246002096
:1022200041B1042909D008290AD00C2901D110682C
:10223000006C70471068406B70471068806B704787
:102240001068C06B704770B5044690F83C000128D8
:1022500012D0012584F83C50022084F83D0020462D
:1022600001F0CCF801004FF0000007D084F83D5099
:1022700084F83C00012070BD022070BD2168CA684E
:1022800022F04002CA602168CA6822F48042CA6013
:1022900084F83D5084F83C00002070BD7047FEE794
:1022A0001F482021017041709FED1E0A002280ED21
:1022B000010A9FED1D0A490180ED020A9FED1B0AEC
:1022C00080ED030A9FED1A0A80ED040A80ED050AED
:1022D00080ED060A00EB82031962521C8A42F9DB88
:1022E0005FF0000200EB820303F580531962521C79
:1022F0008A42F7DB5FF0000200EB820303F58043C4
:10230000521C83ED080A8A42F6DB0A4841F2680152
:10231000016200214162B7EE000A80ED0A0A7047AF
:1023200088000020CDCC4C3E295C8F3E9A99993E86
:10233000000000008850002010B50122084909481B
:1023400001F0B3FA074801F09DFA064C28B104F1F8
:102350001401204601F0A0FA012084F8200010BDED
:1023600000080240B450002010B5084CB0EE060A38
:10237000042084ED050A01F091FE9FED050A04207A
:1023800084ED050ABDE8104001F088BE88000020F9
:10239000000000002DE9F04786B014216846FDF7E3
:1023A00047FF2B480024016841F0040101600168E7
:1023B00001F004010591016841F00101016001682B
:1023C00001F001010591016841F00201016000681E
:1023D000DFF8808000F002000590002208214046CE
:1023E000FEF78BFDDFF870904FF4E0760122314666
:1023F0004846FEF782FD012231014046FEF77DFD91
:10240000DFF858A04FF48077002239465046FEF797
:1024100074FD41F6084000900125CDE9015469465C
:1024200040460394FEF78CFC0096CDE901546946C2
:1024300048460394FEF784FC0097CDE901546946B1
:1024400050460394FEF77CFC06B0BDE8F087000020
:102450003038024000000240000802400004024000
:10246000094808490160002141608160C160016143
:10247000416181610162416281620A21C162FFF7AB
:10248000EBB8000000300140EC8000200B480A4906
:10249000012201604FF48271416000218160C160BE
:1024A000C0E904125202C0E9062101624162816260
:1024B0000A21C162FFF7D0B80038004044810020F3
:1024C00010B590B0002409940A940B94142104A828
:1024D0000C94FDF7ADFE21480394009401940294FE
:1024E0000D944FF080410E94C0E90014611EC0E9C4
:1024F000024104618461FFF7A8FA4FF4805009900B
:1025000009A91648FFF78AFB1448FFF78EFC042040
:1025100004906020CDE90504079404A90F480894AD
:10252000FFF791FE02200090CDE9010400226946E8
:102530000A480394FFF7EAFB0120CDE9004004229A
:1025400069460648FFF7E2FB2020CDE90D040DA9FE
:102550000248FFF759FA10B010BD00009C8100201E
:1025600010B586B00024124800940194029403949C
:1025700004940E49059401601321C0E9011441F24D
:102580006801C0E903148461FFF75FFA4FF48050DB
:10259000009069460648FFF741FB049404A90448EB
:1025A0000594FFF731FA06B010BD000000040040AA
:1025B000DC81002030B597B000241094119412945F
:1025C00014210BA81394FDF733FE00940194029498
:1025D000039414941C2104A81594FDF729FE2548A2
:1025E00023490125C0E9001541F26801C0E9024113
:1025F00004618461FFF729FA2803109010A91D488F
:10260000FFF70CFB1B48FFF7CCFD1A48FFF70DFC4A
:1026100004200B905020CDE90C040E940BA9154812
:102620000F94FFF710FECDE90045029400226946A1
:1026300010480394FFF76AFB0220009001900422E7
:1026400069460C48FFF762FB2020CDE9140414A969
:102650000848FFF7D9F96020CDE904040694082260
:1026600004A904480894FFF734FD17B030BD0000FA
:10267000000C00401C82002030B587B01C21684649
:10268000FDF7D6FD0F480E490F4D016001210024D2
:10269000C0E90114296AC0E903148461FFF781FDD0
:1026A00060200090686ACDE901040022694605486F
:1026B0000494FFF70EFD0348FFF7E0FC07B030BDC0
:1026C000004001409C82002088500020FEE77047B7
:1026D00010B504490C4600F08FF82146BDE81040C3
:1026E00000F0A0BBA800002070B50546FEF750F82A
:1026F000044928460C4600F07FF82146BDE87040AA
:1027000000F090BBA810002010B51022034B11461A
:1027100000F0D6F8BDE8104000F0B8BBA8000020DB
:1027200010B510220E4B114600F0CAF801460246C1
:1027300010230C48FFF7F6F80B4C01220821204625
:10274000FEF7DBFB094908780028FCD00020087060
:1027500002462046BDE810400821FEF7CEBB00002F
:10276000A8000020EC8000200000024008000020AB
:1027700010B50446FEF766F81022044B11462046B9
:1027800000F09EF8BDE8104000F080BBA8100020CB
:102790002DE9F041164CBFEE040A2DED028B0746E1
:1027A00084ED040A9FED138A4FF07C5604F1200556
:1027B00013E0032001F072FC2946384600F01CF8B3
:1027C000294600F019F80746294600F02BFB94ED46
:1027D000040A30EE080A84ED040A94ED040A10EEAF
:1027E000100AB042E5DBBDEC028BBDE8F0810000D1
:1027F00088000020CDCCCC3C2DE9F34F83B08B4634
:1028000000F012FC2D4C0026B14604F11C084BE0F0
:10281000002544E0CDF80090CDF804905BF8273017
:10282000F2B2E9B2012001F0E7FB84F814A001E064
:10283000FDF76EFE207D0028FAD100F0A1F803E03C
:102840004FF0010A05EB4617207E0028E2D00398DE
:1028500094ED020A00EBC70080ED000A94ED030A34
:1028600080ED010A08EB870094ED020A00F50051A3
:1028700000F5405081ED080A94ED030A80ED080A46
:10288000C4F80090C4F80490C4F8109084F8149030
:1028900084F8159084F8169084F818906D1C98F8B8
:1028A0000000A842CCDC761C98F80110B142AFDCE5
:1028B00000F0CCFB039805B0BDE8F08F6C00002061
:1028C0002DE9FC41984614460F46064600F0ACFB45
:1028D000002507EB44110095019558F82130E2B22C
:1028E000F9B2012001F088FB144C0120207501E0B1
:1028F000FDF70EFE207D0028FAD100F041F894ED9E
:10290000020A0F4886ED000A94ED030A86ED010ADB
:1029100094ED020A80ED080A94ED030A00F5805058
:1029200080ED080A25606560256125756575A575CA
:1029300000F08CFB3046BDE8FC8100006C000020FC
:102940008820002010B59FED0A0A00F03DFB094CDD
:10295000B0EE040A042084ED050A01F09FFB9FED10
:10296000060A042084ED050ABDE8104001F096BB7C
:102970000000BE42880000200000000070470000F8
:1029800070B5294C2DED028B2068012540B360689D
:1029900000EE100A2068F8EE400A00EE100AB8EEC9
:1029A000400A80EE801A84ED021A206800EE100AB8
:1029B0002069F8EE400A00EE100AB8EE401A80EEE8
:1029C000810ADFED1A0A80EE801A84ED031A94ED75
:1029D000020A10EE100AB0F17E5F16DC012015E04D
:1029E000B7EE008A84ED038A02211148FEF780FACF
:1029F000012807D09FED0F0A84ED020A2576BDEC71
:102A0000028B70BD84ED028AF8E7002094ED020A83
:102A1000B5EEC00AF1EE10FA01DB012100E0002161
:102A20000842EBD1EBE700006C000020A037A04C7F
:102A3000000002400000000010B50F4C94F8200088
:102A400028B9FFF779FC94F82000002812D00A4931
:102A5000094814310C4600F045FE074800F0AEFD71
:102A60000028FAD0044A2146BDE810401C32024832
:102A700000F0AEBD10BD0000B450002070B502469D
:102A800004464FF4805311461348FEF74BFF134D95
:102A9000012208212846FEF730FA11480178002962
:102AA000FCD0002101700B460E484FF4806100BF3E
:102AB00004EB830292ED000A00EB830202F58042F0
:102AC0005B1C82ED080A8B42F2DB2846BDE87040B1
:102AD00000220821FEF711BAEC800020000002401D
:102AE00008000020880000200148FEF737BD0000E4
:102AF000EC8000200168C968826B1180816B891CA1
:102B00008163C18F491EC187C18F002909D1016826
:102B10004A6822F040024A60C18E002901D100F0CB
:102B200049B870470168097B826B1170816B491C41
:102B30008163C18F491EC187C18F002909D10168F6
:102B40004A6822F060024A60C18E002901D100F07B
:102B500031B87047016B02680988D160016B891C2C
:102B60000163C18E491EC186C18E002909D1016849
:102B70004A6822F080024A60C18F002901D100F02A
:102B800019B87047016B026809781173016B491C11
:102B90000163C18E491EC186C18E002909D1016819
:102BA0004A6822F080024A60C18F002901D100F0FA
:102BB00001B8704738B50446214845F6C051006851
:102BC000B0FBF1F0642148430090FEF79BF9024608
:102BD0002068416821F020014160009888B1401EC2
:102BE0000090206880688007F7D56421204600F0B7
:102BF00031F818B1606D40F020006065A06828B120
:102C000008E0606D40F020006065EEE72068C16874
:102C100080680090616D012029B184F85100204640
:102C2000FEF79AFC38BD94F8511084F8510004293D
:102C3000204602D0FEF7C8FE38BDFEF7C3FD38BD02
:102C40003400002010B5806B0021C187C186FEF7DB
:102C500083FC10BD38B504461248134B0068B0FB26
:102C6000F3F04FF47A73584300906068B0F5827FB8
:102C70000DD10B46009200228021204600F016F86C
:102C800070B1606D40F020006065032038BD009891
:102C900030B1401E009020688068C0430006F6D521
:102CA000002038BD3400002000366E012DE9F041CF
:102CB0001D4617460E460446DDF8188008E0681CDD
:102CC00006D0FEF71FF9A0EB0800A8420BD255B1C1
:102CD0002068806836EA000030D00020B842EED18B
:102CE0000020BDE8F0812068416821F0E0014160EA
:102CF0006068B0F5827F0BD1A068B0F5004F02D0BC
:102D0000B0F5806F04D12068016821F040010160B6
:102D1000A06AB0F5005F09D12068016821F4005174
:102D200001602068016841F400510160012084F8CD
:102D30005100002084F850000320D2E70120CDE7A5
:102D4000704700002DE9F04781462DED028B0025EC
:102D5000B0EE408A2C461748FEF712FF154E0020B1
:102D600031684862F0EE000A49F23267804628EE88
:102D7000208A0EE04846FFF7ABFC3068406A2044EA
:102D8000B842F7DB3268C2F82480A0F51644323C22
:102D90006D1C00EE105AB8EEC00AB4EEC08AF1EE17
:102DA00010FAE7DCBDEC028B0248BDE8F047FEF705
:102DB0000ABF00005C82002070B5044600234FF477
:102DC000806200BF51F8230000EE100A04EB83007C
:102DD00000F50050B8EEC00A5B1C934280ED000A7B
:102DE000F0DB22464FF4405311460B48FEF79AFDA4
:102DF0000A4D012208212846FEF77FF8084801788D
:102E00000029FCD0002101700A4608212846FEF75F
:102E100074F894ED000A70BDEC80002000000240C0
:102E20000800002010B500234FF4806451F82320DF
:102E300000EE102A00EB830202F50052B8EEC00A41
:102E40005B1CA34282ED000AF0DB02464FF44053C4
:102E500011460B48FEF766FD0A4C01220821204668
:102E6000FEF74BF8084908780028FCD000200870CD
:102E700002462046BDE810400821FEF73EB800009B
:102E8000EC8000200000024008000020024610B53F
:102E9000082311460A48FEF745FD0A4C0122082185
:102EA0002046FEF72AF8084908780028FCD00020C0
:102EB000087002462046BDE810400821FEF71DB804
:102EC000EC80002000000240080000200C4910B5F2
:102ED00004230A460B48FEF725FD0B4C012208216E
:102EE0002046FEF70AF8094908780028FCD000209F
:102EF000087002462046BDE810400821FDF7FDBFDE
:102F0000D0500020EC80002000000240080000208B
:102F100010B59FED070A044680ED000A80ED010A16
:102F2000FDF7C4FD2046BDE810400249FFF77ABF17
:102F3000ABAA2A4FA810002010B59FED070A04463F
:102F400080ED000A80ED010AFDF7B0FD2046BDE8E6
:102F50001040FFF79BBF0000ABAA2A4F70B5064692
:102F60002DED028B0021DFED158AFDF7F9FA144CE7
:102F7000DFED140A94ED040A94ED041A30EE600AB1
:102F800031EE208A0DE0032001F088F8002530465C
:102F9000FFF7BAFB6D1C042DF9DB94ED040A30EE4B
:102FA000280A84ED040A94ED040AB4EEC80AF1EE8E
:102FB00010FAE8D3BDEC028B70BD00000AD7233CA9
:102FC000880000200AD7A33D70B5154C05202DEDD3
:102FD000048BB0EE409ADFED108A9FED100AB0EE40
:102FE000688A84ED060A01F059F80E4D06E000BF2C
:102FF000FFF722FD95ED078AFFF768FFB4EEC98A57
:10300000F1EE10FAF4D3C4ED068A0520BDEC048B72
:10301000BDE8704001F042B8000000006666E63F7F
:1030200088000020B450002010B500210648FEF7AB
:1030300018FF04210448FEF714FF0348BDE81040C0
:103040004030FEF7AFBD00009C81002010B500218C
:103050000648FEF731FF04210448FEF72DFF034820
:10306000BDE810404030FEF7C4BD00009C81002048
:10307000FDF74EBF30B593B030216846FDF7D8F864
:1030800014210CA8FDF7D4F819480025016841F077
:1030900080510160006800F080501190154801686F
:1030A00041F4804101600068022400F480401190E6
:1030B000012003901020009406940490CDE907505D
:1030C0004FF4A870CDE9090404200B906846FEF780
:1030D000B5F80CA90F2081E831004FF4A0500F90F3
:1030E000E002109005210CA8FDF7D8FF13B030BD09
:1030F00040380240007000401048016841F47001FF
:1031000001600F48016841F0010101600C4A002193
:103110000832116002680B4B1A400260031D0A4A14
:103120001A60026822F48022026005480C300160B7
:1031300002495806803908607047000088ED00E0B9
:1031400000380240FFFFF6FE103000240148FEF771
:10315000E2BE00009C8100200148FEF7DCBE0000BA
:10316000DC8100200148FEF7D6BE00001C82002052
:10317000F0B50268254C264D264E274F274B4FF0C1
:10318000804CA04209D0604507D0A84205D0B0428B
:1031900003D0B84201D0984204D122F0700E4A68A0
:1031A00042EA0E02A0421BD0604519D0A84217D0B7
:1031B000B04215D0B84213D0984211D0184DA84251
:1031C0000ED0184DA8420BD0174DA84208D0174D6D
:1031D000A84205D0164DA84202D0164DA84203D1F0
:1031E00022F44075CA682A434D6922F080022A43BE
:1031F00002608A68C2620A688262A04201D0984274
:1032000001D10969016301214161F0BD0000014064
:103210000004004000080040000C00400004014091
:1032200000400140004401400048014000180040B7
:10323000001C00400020004010B501F01F030121D8
:10324000046A99408C430462016A9A401143016206
:1032500010BD10B5846842EA032224F47F440A4377
:103260002243826010BD826822F070020A4342F05D
:103270000701816070470000F0B5026A22F0010288
:103280000262036A42688469124E24F073050C6876
:103290002C4323F002058B682B430D4DA84201D02F
:1032A000B04205D123F00807CB683B4323F0040369
:1032B000A84201D0B04205D14D6922F440721543B5
:1032C0008A692A4342608461496841630362F0BDB0
:1032D0000000014000040140F0B5026A22F0100233
:1032E0000262026A436884690D6824F4E64444EA91
:1032F00005248D6822F0200242EA05120F4D104E7F
:10330000A84201D0B04206D1CF6822F0800242EA42
:10331000071222F04002A84201D0B04207D14D6905
:1033200023F4406343EA85038D6943EA85034360E0
:103330008461496881630262F0BD000000000140C1
:1033400000040140F0B5026A22F480720262026A4F
:103350004368C46922F4007224F073050C68124EAD
:103360002C438D6842EA05220E4DA84201D0B0429E
:1033700006D1CF6822F4006242EA072222F480627A
:10338000A84201D0B04207D14D6923F4405343EA2B
:1033900005138D6943EA05134360C4614968C1633D
:1033A0000262F0BD000001400004014030B5026A35
:1033B00022F480520262046A4268C3690D6823F4F1
:1033C000E64343EA05238D6824F4005444EA0534B7
:1033D000084DA84202D0084DA84204D14D6922F4FC
:1033E000804242EA85124260C36149680164046216
:1033F00030BD0000000001400004014010B503682A
:103400009A6822F070044A68224322F007040A688E
:1034100022439A604A6812F00F0F30D11211082A25
:103420002DD2DFE802F02C2C2C2C0B2127040B6969
:10343000D1E902210068FFF70CFF20E00A68052AA5
:1034400010D00268136A146A24F00104146202683E
:103450009469096924F0F00444EA0111916100685B
:1034600003620CE0012010BD0A698968006800F061
:1034700008F804E00A698968006800F053F8002041
:1034800010BD10B5036A046A24F001040462846963
:1034900024F0F00444EA021423F00A020A4384618F
:1034A000026210BD70B5046A24F0010404628469EC
:1034B000056A154EB04214D0B0F1804F11D0134EB2
:1034C000B0420ED0124EB0420BD0124EB04208D0D5
:1034D000114EB04205D0114EB04202D0104EB04253
:1034E00003D124F00304144301E044F001041A075B
:1034F00024F0F00444EA126225F00A0301F00A0104
:1035000019438261016270BD000001400004004067
:1035100000080040000C0040000401400040014051
:103520000018004010B5036A23F01003036283699A
:10353000046A23F4704343EA023224F0A00343EA0E
:1035400001118261016210BD30B5046A24F01004DB
:1035500004628469056A24F4407444EA022222F475
:1035600070444FF6FF7202EA03322243A02425F092
:10357000A00304EA011119438261016230BD704762
:103580000C48016821F080710160016841F0807190
:1035900001600948016821F001010160016841F002
:1035A0000101016000214160416800BF00BF406827
:1035B000401A7047FCED00E0001000E000F087B911
:1035C0000078282801D000207047012070470000B3
:1035D0002DE9FE438046002516460F462C46084638
:1035E000FFF7EEFF002821D0404600F070F90028D8
:1035F0001CD0404600F09BF93946404600F026FAC0
:10360000BE21404600F05AFA6F46404600F07FF96E
:103610003855641CE4B2092CF7D30821684600F041
:1036200017F99DF80810814202D00020BDE8FE8302
:10363000BDF80040404600F07AF9200403D5E0438D
:10364000401C84B201259DF80400C4F30222C0F39B
:10365000411144F30710093140EA0210092916D03C
:103660000A291DD00B2926D00C292DD05FF000008F
:103670009FED1A0A00EE900AF8EEE00A30EE800A9A
:103680000DB1B1EE400A86ED000A0120CEE7C4F389
:10369000C00100EE101AF6EE000AB8EE400A07E08C
:1036A000C4F3810100EE101AF5EE000AB8EE400AEC
:1036B00020EE200ADEE7C4F3420100EE101AF4EE19
:1036C000000AB8EE400AF3E704F00F0100EE101A0A
:1036D000DFED030AB8EE400AEAE7000000007F438E
:1036E0000000803D70B505460C460846FFF768FFB0
:1036F00000280BD0284600F01AF92146284600F091
:10370000A5F94421284600F0D9F9012070BD000038
:1037100002490844C0F38F20704700000000FEBF3C
:1037200000B5FFF7F5FF012181400248026811430F
:10373000016000BD303802402DE9F04F9E464FF445
:1037400000330344C3F38727DDF824B000234FF090
:1037500001094FF0030A00BF09FA03F50D4232D008
:103760001C4E36F817402C4326F81740D0F80CC0F2
:103770005E000AFA06F42CEA040C0BFA06F84CEA8E
:10378000080CC0F80CC0D0F800C002FA06F82CEA09
:10379000040C4CEA080CC0F800C0012A01D0022A2F
:1037A00011D1D0F804C0ADB22CEA050C0EFA03F525
:1037B000ADB24CEA050CC0F804C08568A5430A9C6C
:1037C000B440254385605B1CDBB2102BC4D3BDE83D
:1037D000F08F0000500000202DE9FC411546DDE986
:1037E00008760C00804608D0FFF79AFFCDE90076F6
:1037F0002A4621464046FFF79FFFBDE8FC8170B591
:1038000000220125032305FA02F40C4205D00468C6
:10381000560003FA06F6B4430460521CD2B2102AD2
:10382000F1D370BDF0B500220123032403FA02F5A1
:103830000D4208D00568560004FA06F7BD4303FAA6
:1038400006F73D430560521CD2B2102AEED3F0BDFC
:1038500030B50446002011E014F8013B5FF0080287
:1038600080EA030515F0010F4FEA500001D080F007
:103870008C005B08521E12F0FF02F1D1491EC9B242
:10388000EAD230BD10B5024600F074F8BDE8104031
:10389000F021104600F073B8002283185B7A8B5435
:1038A000521CD2B2082AF8D370477CB515460E4692
:1038B0000446FFF765FE01200090024601900023B8
:1038C00029463046FFF788FF2660A5807CBD70B58D
:1038D000044680882168002500048861A18820684A
:1038E000FFF7A0FF0320FDF7CBF8A1882068FFF7C2
:1038F00086FF0A20FDF7C4F820680069A188084205
:1039000000D001253220FDF7BBF8284670BD70B508
:1039100005460824002006E046082846FFF7D7FFA2
:1039200046EAC010C0B2641EE4B2F5D270BD10B554
:1039300004468088216800048861A1882068FFF718
:1039400071FF4FF4F070FDF79BF8A1882068FFF736
:1039500056FF4620FDF794F820680069A1880842C8
:1039600001D0012400E000244FF4CD70FDF788F869
:10397000204610BD002181710172C17170472DE98F
:10398000F04704464FF000090125007A88464F466B
:103990002E46CA46E0BB2046FFF7C9FFC0BB4146E2
:1039A000204600F08BF82046FFF791FF8046204626
:1039B000FFF78DFF4146B8F1010F01D1012830D04A
:1039C000804502D001290AD017E0A079A8420CD97D
:1039D00004EB0700407A304208D04FF0010104EBBD
:1039E0000700427A42EA06020AE0F6D04FF00001F0
:1039F000A946092D01D284F80790E019427AB24312
:103A00004272204600F032F86D1CEDB2700000E00A
:103A100013E010F0FF0602D17F1CFFB20126082F31
:103A2000C1D3412D09D35FEA0900A07101D1012062
:103A30002072617A0120002906D184F806A084F85A
:103A400008A084F807A00020BDE8F08770B50D46F7
:103A50000646552100F032F800243046295D00F07A
:103A60002DF8641CE4B2082CF7D370BD10B50446E1
:103A700080880204206800298261A18820680AD019
:103A8000FFF7D0FE0A20FCF7FBFFA1882068FFF7B4
:103A9000B6FE372009E0FFF7C5FE4120FCF7F0FF36
:103AA000A1882068FFF7ABFE0520FCF7E9FFA1889D
:103AB0002068BDE81040FFF7A2BE000070B50C46BC
:103AC0000646082506E000BF04F001013046FFF776
:103AD000CDFF64086D1EEDB2F6D270BD70B505461F
:103AE00000242846FEF700FE641C0A2CF9DB70BD9A
:103AF00070B5184E00242DED028B9FED148B2046DF
:103B0000FCF713FC53EC182BFCF79DFBFCF71EFC99
:103B100000EE100A052086ED060A00F0BFFA002527
:103B2000FEF78AFFFFF7D2F96D1C642DF8DB641CE9
:103B3000082CE4DB05209FED080A86ED060ABDECA3
:103B4000028BBDE8704000F0A9BA00000000000040
:103B50000000D03F880000200000000070B5174C26
:103B600005202DED028B9FED148A84ED068A00F06E
:103B700095FA0025FEF760FFFFF7A8F96D1C642D8C
:103B8000F8DBB7EE040A84ED060A052000F086FA99
:103B900000254FF47A7600BFFEF74EFFFFF796F947
:103BA0006D1CB542F8DB84ED068A0520BDEC028B66
:103BB000BDE8704000F072BA0000000088000020EC
:103BC0007047000070B5054D064600243046FEF7EC
:103BD000CFFD641CAC42F9DB70BD0000A086010083
:103BE00010B50024FEF728FFFFF770F9641C642C61
:103BF000F8DB10BD2DE9FC41002401262546F70223
:103C000000EE104A0022CDE90056B8EEC00A114677
:103C10001046BDEEC00A10EE103A00F0EDF901209A
:103C2000FDF778F8641CBC42EADBBDE8FC810000CB
:103C300070B504465FF00005FCF738FF6D1C0A2DD7
:103C4000FADB22464FF4805311461448FDF76AFE12
:103C5000134D012208212846FDF74FF9114801783C
:103C60000029FCD0002101700F480B464FF4806200
:103C700004EB830100EB830691ED000ABDEEC00A60
:103C800010EE101A31625B1C9342F1DB2846BDE84E
:103C9000704000220821FDF730B90000EC800020C0
:103CA000000002400800002088000020FEE700001D
:103CB000074A10B50523511F0648FDF733FE044897
:103CC000113801780029FCD00021017010BD0000DE
:103CD00019000020EC8000200907090E002804DBF1
:103CE00000F1E02080F80014704700F00F0000F1B0
:103CF000E02080F8141D704702E008C8121F08C1B8
:103D0000002AFAD170477047002001E001C1121F5C
:103D1000002AFBD170470005800C010201EB102046
:103D200080B270471CB5FDF727F9FFF7A3F9FEF73E
:103D3000B7FAFEF701FBFEF72DFBFEF791FBFEF74E
:103D4000A5FBFEF7BDFBFEF735FC4FF00008A049D0
:103D5000CDF800809D48CDF80480086044460846B0
:103D6000FCF73DFF00940022694699480194FCF756
:103D700015FF9FED980AB0EE401ADFED970A00F0AC
:103D80003BFA0346002211469148FCF76DFF0021E3
:103D90008F48FCF776FFFEF7E3FBFEF76DFC9048DB
:103DA00000948E49019401604FF6FF71C0E901143F
:103DB0008461C160FDF749FE00946946884801941A
:103DC000FDF722FE012211028648FDF796F8002039
:103DD00000F064F9012000F061F9022000F05EF9C2
:103DE000032000F05BF9042000F058F9052000F0F2
:103DF00055F97D4DDFF8F491A5F10904A5F11107FE
:103E000004F1040AFFF754FF28787870697821706C
:103E1000A9786170E978A1702979E1701B2872D2C4
:103E2000DFE800F00E1B21272D3135484C515E682C
:103E3000727D8184888BC89096A8AEB5B9BDC1004B
:103E40008AF8008011218AF8011022218AF80210D4
:103E500044218AF80310882129E094ED000A00200B
:103E600089ED010A39E094ED000A012089ED020A8A
:103E700033E094ED000A022089ED030A2DE094ED71
:103E8000000A484626E0FFF7B5FEBB2106E0584889
:103E9000FEF71EFC5648FFF73BF8AA218AF80010EF
:103EA0008AF801808AF8028041468AF803808AF8FD
:103EB0000410A7E74E48FEF76BFC64E001214C4874
:103EC000FCF74EFB5FE099ED040A4846DFED490A36
:103ED00030EE200A80ED040A032000F0DFF891E7BD
:103EE00094ED000A424889ED070A99ED070AFEF7AA
:103EF0003BFA48E094ED000A012189ED070A3C48AD
:103F0000FEF720FD1BE055E094ED000A364889EDF0
:103F1000070A99ED070AC01DFFF752FE0FE034486B
:103F2000FFF7DCFD2FE0FFF75BFE08E03048FFF70E
:103F300049FE3BE0FFF7DCFD01E0FFF70FFEFCF779
:103F4000CBFD5FE7B2EE040A2948FCF7DFFC2DE069
:103F5000002603E02648FEF7BBFB761C00EE106A45
:103F6000D4ED000AB8EEC00AF4EEC00AF1EE10FA81
:103F7000F0DC08E094ED000A1D48FEF7E3FE02E0E5
:103F80001B48FCF7D1FD1A48FEF7C2FF3AE7184874
:103F9000FFF74EFE36E71648FEF770FD32E714488D
:103FA000FCF700FD2EE71248FEF7D8FF1048FEF799
:103FB000C3FF27E78AF800808AF801808AF8028028
:103FC0008AF803808AF804801CE70000007400402F
:103FD000D88000200000000033335340001400401C
:103FE0005C820020000402401900002088000020AC
:103FF000D85000200AD7233CFEB50024DDE908652F
:104000008DF800408DF804408DF80840B3F5006F3E
:1040100002DB40F2FF7402E0002B00DB9CB2C00127
:1040200001F01F0140EA8100C2F3C10108438DF88D
:104030000000C4F3841040EA42108DF80400A00090
:1040400006F0010140EA410005F001010843114D6D
:104050008DF808004FF48064002221462846FCF7C2
:104060004CFFA6103346012269460B48FDF7ABFB17
:104070003346012201A90848FDF7A5FB334601227A
:1040800002A90548FDF79FFB012221462846FCF7BF
:1040900034FFFEBD0000024044810020F8B5014617
:1040A0009FED4D1ADFED4D0A4D4C4E4DA6154E4875
:1040B000062976D2DFE801F003193047597690EDF2
:1040C000010A00F099F8FFF726FEADF80000002283
:1040D00040212046FCF711FF33460222694643483F
:1040E000FDF771FB0122402114E090ED020A00F07F
:1040F00083F8FFF710FEADF8000000228021204673
:10410000FCF7FBFE3346022269463848FDF75BFBAD
:1041100001228021204642E090ED030A00F06CF875
:10412000FFF7F9FDADF80000002235463146204684
:10413000FCF7E3FE2B46022269462C48FDF743FBC1
:1041400001222946E6E790ED040AF1EE040A30EE7A
:10415000200AF2EE040A00F04FF8FFF7DCFDADF89C
:10416000000000224FF480540CE090ED050AF1EEBF
:10417000040A00F041F8FFF7CEFDADF80000002280
:104180004FF4006421462846FCF7B7FE334602226E
:1041900069461648FDF717FB012221462846FCF721
:1041A000ACFEF8BD90ED060A114A10EE101A9142CD
:1041B00003DDB0EE040A80ED060A90ED060ADFED9D
:1041C0000D0A00F019F803460848002211466C3821
:1041D000FCF74AFDF8BD000000000000295C4F40DC
:1041E00000080240000002408800002044810020B6
:1041F0000000204033335340B4EEE00A0020F1EEDB
:1042000010FA02DD40F6FF707047B4EEC10AF1EE1D
:1042100010FAF9D330EEC11ADFED051AC1EE810AAA
:1042200020EE800ABCEEC00A10EE100A80B2704781
:1042300000008045000000000000000001020304AF
:10424000060708096442000800000020380000004A
:10425000F83C00089C42000838000020A8860000B6
:10426000083D000800000000000000000000000001
:1042700000000000000000000000AB00CD000000C6
:10428000000000000000000000000000010000002D
:0C42900010000000000000000024F400FA
:040000050800018965
:00000001FF
