:020000040800F2
:10000000A06600209D0100082F2600083B22000862
:100010002D260008DF0700089D37000800000000BB
:10002000000000000000000000000000C92A0008D5
:10003000D50B00080000000029280008F92C000852
:10004000B7010008B7010008B7010008B7010008B0
:10005000B7010008B7010008B7010008B7010008A0
:10006000B7010008B7010008B7010008B701000890
:10007000B7010008B7010008B7010008B701000880
:10008000B7010008B7010008B7010008B701000870
:10009000B7010008B7010008B7010008B701000860
:1000A000B7010008B7010008B7010008B701000850
:1000B000B7010008D52D0008E12D0008B7010008A0
:1000C000B7010008B7010008B7010008712800084F
:1000D000B7010008B7010008B7010008B701000820
:1000E000B7010008B7010008B7010008B701000810
:1000F000B7010008B7010008B7010008B701000800
:10010000B7010008B7010008B7010008B7010008EF
:10011000B7010008B7010008B7010008B7010008DF
:10012000B7010008B7010008B7010008B7010008CF
:10013000B70100080000000000000000B70100083F
:10014000B7010008B7010008B7010008B7010008AF
:10015000B7010008B7010008B7010008B70100089F
:10016000B7010008B7010008B7010008B70100088F
:10017000B7010008B70100080000000000000000FF
:10018000B7010008B7010008DFF80CD000F030FA22
:1001900000480047AD410008A0660020064880479F
:1001A00006480047FEE7FEE7FEE7FEE7FEE7FEE75C
:1001B000FEE7FEE7FEE7FEE7812D00088901000863
:1001C0002DE9F05F0546002092469B46884606468C
:1001D000814640241BE0284641464746224600F01F
:1001E00062F953465A46C01A914110D31146184637
:1001F000224600F049F92D1A67EB01084F462246C6
:100200000120002100F040F917EB00094E41201EAB
:10021000A4F10104DFDC484631462A464346BDE8E6
:10022000F09FD2B201E000F8012B491EFBD27047CB
:100230000022F6E710B513460A4604461946FFF7B2
:10024000F0FF204610BD2DE9FE4F81EA030404F0C3
:10025000004421F0004100944FF0000B23F00043D4
:1002600050EA01045ED052EA03045BD0C3F30A549F
:10027000C1F30A552C44A4F2F3340194A0FB0254B8
:10028000C1F3130141F48011C3F3130343F480134A
:1002900001FB024400FB034E840A970A44EA81549E
:1002A00047EA8357A4FB076802958D0A05FB07857B
:1002B0004FEA932C04FB0C542705029D4FEA065885
:1002C00047EA1637B5EB08056EEB070C870E920E62
:1002D00047EA811742EA8312A7FB0201B6EB0B0142
:1002E00064EB00042B0D43EA0C335E1844EB1C5006
:1002F000DA465146E7FB0201C5F313044FEA0B331C
:1003000043EA14534FEA0432019C43EA0603A4F182
:100310000C040294009CCDE900B400F01AF903B07B
:10032000BDE8F08F00200146F9E72DE9F04D81EAA4
:10033000030404F0004B21F0004514464FF0000A7E
:1003400023F0004150EA050220D054EA01021DD0FA
:10035000C5F30A570246C5F31303C1F31300C1F3F3
:100360000A5640F4801543F48013A7EB0608101BCF
:10037000D64608F2FD3873EB050002D308F10108F8
:1003800001E092185B41B8F1000F03DA002001464A
:10039000BDE8F08D00204FF48011064684460EE043
:1003A000171B73EB050705D3121B63EB050306430D
:1003B0004CEA010C49084FEA300092185B4150EAC0
:1003C0000107EDD152EA030012D082EA040083EA69
:1003D0000501084305D0101BAB4106D201220023C2
:1003E00006E000224FF0004302E06FF001025310DC
:1003F0001AEB06004CEB085110EB0A0041EB0B0125
:10040000BDE8F04D00F096B80EB5C10F80EAE0707F
:100410000844CA07002140F233438DE80E000A4623
:100420000B4600F096F803B000BD00F0004230F03B
:1004300000400AD0C10D01F56071C0F3160042EA18
:100440000151C20840071143704700200146704720
:1004500001F0004330B421F0004150EA010206D01F
:100460000A0DA2F56072C1F31301002A02DC30BC50
:1004700000207047440F44EAC104C100E01830BCBA
:1004800000EBC25000F01FB8202A04DB203A00FA2B
:1004900002F1002070479140C2F1200320FA03F3DB
:1004A000194390407047202A04DB203A21FA02F0D9
:1004B0000021704721FA02F3D040C2F1200291409E
:1004C0000843194670470029A8BF7047401C4900DF
:1004D00008BF20F00100704710B4B0FA80FC00FAA9
:1004E0000CF050EA010404BF10BC704749B1CCF1D4
:1004F000200421FA04F411FA0CF118BF0121214360
:100500000843A3EB0C01CB1D4FEA00614FEA10201A
:1005100042BF002010BC704700EBC35010440029BC
:10052000A4BF10BC7047401C490008BF20F0010068
:1005300010BC704710B5141E73F1000408DA401C9B
:1005400041F1000192185B411A4301D120F00100F2
:1005500010BD2DE9F04D92469B4611B1B1FA81F2E2
:1005600002E0B0FA80F220329046FFF78DFF044699
:100570000F4640EA0A0041EA0B0153465A46084337
:1005800013D0114653EA010019D0C8F14002504679
:10059000FFF789FF05460E46504659464246FFF78B
:1005A00073FF084305D0012004E020463946BDE82A
:1005B000F08D0020054346EAE0762C4337430A9845
:1005C0006305E40AA0EB08000022FD0A44EA475450
:1005D0000A3002D500200146E9E7010510196941FA
:1005E000DDE9084500196941BDE8F04DA2E70000CA
:1005F000064C074D06E0E06840F0010394E8070070
:1006000098471034AC42F6D3FFF7C2FD804700088C
:10061000A04700082DE9FE4F804681EA0300C00F85
:100620000C46009021F0004123F00045B8EB020099
:10063000A94105D24046214690461C460B4602463B
:1006400023F00040104347D0270DC7F30A00C3F33F
:100650000A510290401A019040286BDAC3F313004C
:1006600040F4801B0098924620B10023D2EB030A8D
:1006700063EB0B0B01985946C0F140025046FFF75F
:1006800003FF06460D4650465946019A00F095F87C
:1006900010EB08006141002487EA115284EAE773F5
:1006A0001A4340D0009A62B3019A012A4FEA0752D6
:1006B00015DC001B61EB02014FF0004202EA075219
:1006C000CDE90042001C41F5801132462B46FFF770
:1006D00040FF03B0BDE8F08F40462146F9E7001B1C
:1006E00061EB0201001C41F5801300185B412018EA
:1006F000A2F5001747EB030140EAD570B6196D412A
:1007000011E06D084FEA360645EAC0754FEA075218
:10071000001B61EB0201001C41F5801149084FEA02
:1007200030000019514132462B4603B0BDE8F04F6E
:10073000FFF700BF0098012240000023D0EB020227
:1007400063EBE073009821464FEAE074B8EB0000D9
:1007500061EB0401E9E783F000435BE781F00041CE
:1007600058E70EB540F2334102910021CDE9001166
:100770000A460B46FFF7EDFE03B000BD70B5C1F3AE
:100780000A5201F000450024C1F3130140F2FF3387
:1007900041F480119A4201DA002070BD40F23343E7
:1007A0009A42A2F2334203DC5242FFF77CFE00E0A1
:1007B00090402C43F1D0404270BD202A06DBCB177D
:1007C000203A41FA02F043EAE07306E041FA02F30C
:1007D000D040C2F120029140084319467047FEE71D
:1007E00010B50F4A00214FF4806400BF50F831303B
:1007F00000EE103A00EBC103F8EEC00A5B6800EEB1
:10080000103A02EB810303F50053B8EEC00A491C0D
:10081000A14280EE801A83ED081AE7DB10BD0000CC
:10082000400000200168406800EE101AF8EEC00A8F
:1008300000EE100A0348B8EEC00A80EE801A80ED80
:10084000081A7047402000202DE9F14F00262DEDB9
:10085000028B82B007463546B146B046B3469FED9F
:10086000760A764C032084ED040A03F0F7FD04F1C8
:1008700020013846009101F03BFF0490FFF7B0FFE4
:100880006F4F00204FF4806304EB800101F50051AD
:1008900091ED080A10EE102ABA4202DD08F10108B3
:1008A0000AE091ED080A674A10EE101A914202DA46
:1008B00009F1010900E06D1C401C9842E4DBC145D0
:1008C00002DD9FED618A01E09FED608ADFF88081A3
:1008D0004FF081499A46012037E000BF30EE080A08
:1008E000032084ED040A03F0B9FD0099049801F097
:1008F000FFFE0490FFF774FF29460025514B284660
:1009000004EB800202F5005292ED080A10EE10CAC4
:10091000BC4506DC92ED080A10EE102A9A4200DB74
:100920006D1C401C5045EBDB681A07D5C82905DD56
:100930004FF0010B049802F0FFF805E0049802F074
:10094000FBF8BBF1000FC6D0002094ED040A10EEB6
:10095000101A414501D2012100E0002194ED040A62
:10096000084010EE101A494501DA012100E000218B
:1009700094ED040A0842B1D130EE480A032084ED18
:10098000040A03F06BFDDFF8CC804FF4006940F2FD
:10099000FF7B57460099049801F0AAFE0490FFF7E8
:1009A0001FFF00254FEA050204EB820101F500500C
:1009B00090ED080A10EE103A434507DB90ED080A67
:1009C000DFF894C010EE103A634506DD0B6A002B89
:1009D00003DDD1F820C0DC4500DB6D1C90ED080A7A
:1009E00000F0E8F80B6A18440862086A484501DB21
:1009F000584603E0086A002801DA00200862521C09
:100A0000BA42D1DB761C049802F096F8BD4201DAB6
:100A1000192EBFDB049802F0F3F8002004EB8001EC
:100A20000A6A01F580510A62401CB842F6DB02B046
:100A3000BDEC028BBDE8F88F0000000040000020F4
:100A40009A99593F9A99193ECDCCCCBDCDCCCC3D8D
:100A5000000080C08FC2F53EB81E053F2DE9F14F62
:100A6000274C284E002504F5815B4FF4006940F2C5
:100A7000FF7A4FF480675946009801F039FE0090E4
:100A8000FFF7AEFE00231A4604EB820101F5005089
:100A900090ED080A10EE10CAB44507DB90ED080A85
:100AA000DFF8648010EE10CAC4450ADD01F5805CF1
:100AB000DCF82080B8F1000F03DDDCF82080D045A1
:100AC00000DB5B1C90ED080A00F074F801F5805122
:100AD000D1F820C060440862086A484501DB5046EE
:100AE00003E0086A002801DA00200862521CBA42BA
:100AF000CADB6D1CBB4201DA192DBCDBBDE8F88FE7
:100B0000400000208FC2F53EB81E053F2DE9F14F91
:100B1000254C002704F5815BDFF8908004F5005533
:100B20003E464FF4006A40F2FF7904F580541022EB
:100B30005B461146009801F029FE0090FFF772FE17
:100B400095ED080A10EE100A404506DB95ED080AFF
:100B5000174910EE100A884207DDD4F86008002813
:100B600003DDD4F86018494500DB012795ED080A3C
:100B700000F020F8D4F860180844C4F86008D4F8ED
:100B80006008504501DB484604E0D4F860080028BE
:100B900002DA0020C4F86008761C002F01D10A2E6A
:100BA000C5DBBDE8F88F0000400000208FC2F53E95
:100BB000B81E053FF6EE000A30EEC00ADFED040A6B
:100BC00020EE200ABDEEC00A10EE100A70470000A9
:100BD00000002F437047000031B5084D6C6800F0ED
:100BE00067FB0749B0FBF1F0009948430090686843
:100BF0000099001B8842FAD338BD0000001000E0C5
:100C000040420F0010B502F053F809480121017469
:100C1000017C0029FCD14168C1600168816000212C
:100C20004160016081744174BDE8104002F052B827
:100C30007030002038B59FED0E0A69468DED000A30
:100C400004230A460B4800F0DFFE0B4C012208216A
:100C5000204600F0C4F9094908780028FCD000209B
:100C6000087002460821204600F0B9F938BD00009E
:100C7000000048C2BC6000200000024000000020CC
:100C800070B54379012B1AD00126467102230371F6
:100C900005682C6840F6FE7393409C43D1E900310F
:100CA0000B43934023432B6001680B68C02494409E
:100CB000A3430B60067100214171084670BD0220FC
:100CC00070BD70B5040003D02079002510B105E097
:100CD000012070BD6571204600F008F802202071E7
:100CE000256101202071002070BD000010B586B084
:100CF000044614216846FFF79BFA11492068884290
:100D00001CD110480021026842F0005202600068C5
:100D100000F0005005900B481038026842F00102C4
:100D20000260006800F00100059010200090032090
:100D3000CDE901016946044800F074F806B010BD21
:100D400000740040403802400000024018B50468BA
:100D500000940068104421B114300090036000201A
:100D600018BD0830F9E730B54279012A16D00122C2
:100D700042710223037103681D6802FA01F42543DE
:100D80001D60002901680B680AD00C6803F48023F9
:100D900004F46014B3F5802F0FD015E0022030BDAD
:100DA0000C6803F0040304F03804042B0CD1382C35
:100DB0000AD14B6843F0010305E0B4F5601F03D18D
:100DC0004B6843F002034B600271002141710846F9
:100DD00030BD90F83510022903D0802141650120F3
:100DE0007047052180F835100068016821F0010185
:100DF0000160002070470000EFF3058141B14FF022
:100E0000E02100280AD00A69D203FAD5401EF8E78B
:100E1000034A516853685B1A8342FBD37047000052
:100E2000240000202DE9F84FDFF87CB100224FF0BC
:100E300001084FF0030A4FF00F090BF1040E00BF39
:100E40000B6808FA02F42340A3426ED14D68022DCC
:100E500001D0122D0ED1D50800EB850CDCF8205006
:100E60005607F70E09FA07F6B5430E69BE402E4342
:100E7000CCF82060066855000F790AFA05FC07F0E7
:100E8000030726EA0C06AF40374307604E68012E81
:100E900005D0022E03D0112E01D0122E0ED186685D
:100EA000CF6826EA0C06AF40374387604668A64302
:100EB0000C79C4F30014944034434460C6688C68D1
:100EC00026EA0C06AC403443C4604C68E40065D5A7
:100ED000364C256845F480452560246822F00305DA
:100EE00004F480440094324C2E19D6F80848950733
:100EF0002F0F09FA07F5AC432E4DA84201D100256A
:100F000024E02D4DA84201D101251FE02B4DA84220
:100F100001D102251AE02A4DA84201D1032515E08E
:100F2000284DA84202D1042510E037E0264DA84202
:100F300001D105250AE0254DA84201D1062505E08D
:100F4000234DA84201D1072500E00825BD402543D7
:100F5000C6F80858DBF800405D464E689C43F6032F
:100F600000D51C432C60DEF8004075464E689C435B
:100F7000B60300D51C432C600B4D08352C684E6819
:100F80009C43F60200D51C432C60074D0C352C68A1
:100F90004E689C43B60200D51C432C60521C102A9C
:100FA000FFF44EAFBDE8F88F003C014044380240EA
:100FB00000300140000002400004024000080240EE
:100FC000000C0240001002400014024000180240D1
:100FD000001C02400069084000D0012070470AB19F
:100FE000816170470904FBE70148406870470000D1
:100FF0002400002070B517484168491C4160016811
:1010000011B10168491E01600024134E1CE000BFAD
:1010100006EB84056968A9B10878800712D588684D
:1010200010B1401E88600DD16868D0E90321904757
:1010300068684168816069680878C20702D120F059
:1010400002000870641CE4B23078A042E0D802F0DC
:1010500012F870BD240000206C6200200B4810B50F
:10106000016841F400710160016841F48061016030
:10107000016841F480710160032000F06FF80020E6
:1010800000F006F800F024F8002010BD003C0240FB
:1010900070B50D4D04464FF47A712878B1FBF0F02D
:1010A0000A490968B1FBF0F000F00AFD48B9102CBC
:1010B00007D200222146501E00F030F800206C605C
:1010C00070BD012070BD00002C0000203800002001
:1010D0000A4808B5016841F480410160006800F4E5
:1010E000804000900548001F016841F08051016078
:1010F000006800F08050009008BD000044380240B5
:10110000002809DB00F01F02012191404009800006
:1011100000F1E020C0F8001170470000F0B40E4B61
:101120001B680C46C3F30223C3F10705042D00D945
:101130000425191D072901D2002300E0DB1E01262A
:1011400006FA05F1491E214099409E40761E164040
:101150003143F0BC02F078BB0CED00E0064900F032
:10116000070208684FF6FF03184040EA0220034ACE
:1011700010430860704700000CED00E00000FA0525
:101180002DE9F0470E46050065D0DFF81481D8F848
:101190000000F7B200F00F00B04207D288F80070EC
:1011A000D8F8000000F00F00B04254D128683D4C40
:1011B000810712D5400703D5206840F4E050206035
:1011C0002878000703D5206840F46040206020683C
:1011D000A96820F0F000084320602878C0072DD0CF
:1011E000304968680839012812D0022813D0032832
:1011F00011D00968890700292DDA216821F003013F
:1012000001432160FFF7F0FE814641F2883A0EE08B
:1012100009688903EFE709688901ECE7FFF7E4FE55
:10122000A0EB0901514502D90320BDE8F0872068F1
:10123000696800F00C00B0EB810FEFD1D8F8001016
:10124000404601F00F01B14207D90770006800F075
:101250000F00B04201D00120E7E72878400705D50C
:101260002068E96820F4E0500843206028780007EF
:1012700006D52068296920F4604040EAC10020605A
:1012800000F01CF82168084AC1F30311515CC84002
:10129000064908600020FFF7FBFE0020C5E70000BC
:1012A000003C0240083802404C460008380000204C
:1012B000014800687047000038000020154810B54C
:1012C000006810F00C02144813D01449042A0FD0FF
:1012D000082A0ED10F4C241F2268236802F03F0217
:1012E0005B0207D52068C0F38810A0FB010106E06F
:1012F000084610BD2168C1F38811A1FB000100233D
:10130000FEF75EFF2168C1F30141491C4900B0FBB3
:10131000F1F010BD083802400024F40040787D014F
:101320002DE9F84F050076D02878DFF8F8B2BE4CEA
:10133000C00749D0DBF800105846C1F381010129EC
:1013400008D00068C0F3810002280AD1201D00687F
:10135000400206D52068800336D568680028E2D0B0
:1013600032E06868B0F5803F10D0B0F5A02F20685B
:1013700010D020F480302060206820F4802020608D
:101380006868A0B1FFF730FE06460CE0206840F424
:101390008030F4E740F480202060F7E7FFF724FE78
:1013A000801B642873D820688003F7D50CE0FFF712
:1013B0001BFE064605E000BFFFF716FE801B6428F3
:1013C000F0D820688003F7D42878DFF8608280079F
:1013D0004FF000093ED5DBF80010584611F00C0F15
:1013E00009D00068C0F3810002280BD18D48001F8E
:1013F0000068400206D42068800715D5E8680128F7
:1014000009D111E0E868B8B10120C8F80000FFF781
:10141000EBFD064605E002E1FFF7E6FD801B022832
:10142000C0D820688007F7D52068296920F0F80027
:1014300040EAC10020600DE0C8F80090FFF7D4FD3D
:10144000064604E0FFF7D0FD801B02281FD8206865
:101450008007F7D42878000722D5724E744869694E
:101460006C3671B101210160FFF7BEFD074604E053
:10147000FFF7BAFDC01B022809D830688007F7D5EE
:101480000EE0C0F80090FFF7AFFD074605E083E0EF
:10149000FFF7AAFDC01B02287ED830688007F7D46A
:1014A0002878400768D5DFF87CA100270AF1380AC0
:1014B000DAF80000C0000BD4DAF8001041F08051D7
:1014C000CAF80010DAF80000012700F08050009000
:1014D000584E3068C00510D4306840F480703060D9
:1014E000FFF782FD009005E0FFF77EFD0099401AAE
:1014F000022851D83068C005F6D54A4EA86868362B
:1015000001280FD00528306810D020F0010030608D
:10151000306820F004003060A868B8B1FFF764FDBF
:1015200000900FE0306840F00100F4E740F0040064
:101530003060F7E7FFF758FD0099411A41F2883013
:10154000814264D830688007F4D50EE0FFF74CFD87
:10155000009007E0FFF748FD0099411A41F28830FA
:10156000814254D830688007F4D42FB1DAF80010E3
:1015700021F08051CAF80010A869C0B3DBF8001050
:10158000C1F3810102294AD00228484607D0C8F891
:101590006000FFF729FD00E039E005463AE04746E4
:1015A000C8F86000FFF720FD064604E0FFF71CFDC9
:1015B000801B02282BD820688001F7D4D5E90701C9
:1015C0000843A96A1C4A490802EB01416A6A41EAD8
:1015D0008211084395F82C1040EA01611148001F60
:1015E000016001203866FFF7FFFC054605E014E0C6
:1015F000FFF7FAFC401B022809D820688001F7D5C4
:101600000BE000BFFFF7F0FC401B022802D90320CB
:10161000BDE8F88F20688001F4D40020F8E70120AD
:10162000F6E7000008380240003802400000474258
:10163000800E4742007000400000FFFF704700002E
:1016400038B5016804464A688868C043430606D531
:10165000C30704D1D3435B0601D4216C05E08307A3
:1016600008D4D3431B0605D4616C01B02046BDE805
:1016700030400847830603D5430601D5C30551D43E
:10168000D3439B064ED443060AD494F85130032B1F
:1016900049D0636D43F004036365CB688B680093A6
:1016A000830609D4636D43F0010363658B6800937F
:1016B0000B6823F040030B60C00506D4606D40F05A
:1016C00008006065206880680090606D002829D05F
:1016D0002068416821F0E0014160012084F8510058
:1016E000900701D4D00722D02068416821F003017F
:1016F0004160114DE06C40B10565E06CFFF769FB9E
:1017000018B1606D40F040006065A06C002809D001
:101710000565A06CFFF75DFB002803D0606D40F00D
:101720004000606538BDC8688868009038BD2046B4
:10173000FFF784FF38BD0000CD29000870B5040014
:1017400005D00025A56294F8510010B106E00120F3
:1017500070BD84F85050204600F030F8022084F824
:1017600051002068016821F040010160D4E90101C5
:101770000843D4E903121143084361690843218BEC
:1017800001F400710843E1690843216A0843A16A32
:10179000084321680860A069042101EA1040616AD9
:1017A0000843216848602068C16921F40061C16173
:1017B0006565012084F85100002070BDF0B587B048
:1017C000044614216846FEF733FD314A216800249F
:1017D0003048022503260527914226D12D49143190
:1017E0000A6842F480520A60096801F48051059148
:1017F000016841F001010160006802AA00F00100E7
:10180000059048F2E000CDE9000582E8D000694685
:101810002148FFF707FB002211462320FFF77EFC3B
:101820002320FFF76DFC07B0F0BD1C4A9142FAD1AE
:10183000184910310A6842F480420A60096801F4CC
:1018400080410591016841F004010160016801F0E7
:1018500004010591016841F002010160006802AADB
:1018600000F0020005900C20CDE9000582E8D000D0
:1018700069460B48FFF7D6FA4FF48060CDE90005C2
:1018800002AA694682E8D0000648FFF7CBFACAE709
:101890000030014030380240000002400038004073
:1018A000000802400004024070472DE9F84F04464A
:1018B00090F8500000271D461646894601280DD095
:1018C0004FF0010B84F850B0FFF78EFB804694F880
:1018D0005100BA46012804D002278EE00220BDE85C
:1018E000F88FB9F1000F7DD0002E7BD0032084F853
:1018F0005100C4F854A0C4F83090A686E686C4F817
:1019000038A0A4F83CA0A4F83EA0C4F844A0C4F8B1
:1019100040A0A068B0F5004F04D12068016841F4F0
:101920008041016020680168490603D4016841F0E4
:1019300040010160E068B0F5006F606803D030B32B
:10194000012E24D040E008B1012E1CD1206B21686B
:101950000088C86006E020688168890709D5216B86
:101960000988C160206B801C2063E08E401EE086E9
:1019700009E0FFF739FBA0EB0800A84202D3681C7E
:1019800001D031E07DB3E08E0028E4D11FE0206B70
:1019900021680078087306E020688168890709D506
:1019A000216B09780173206B401C2063E08E401E80
:1019B000E08609E0FFF718FBA0EB0800A84202D37D
:1019C000681C01D010E075B1E08E0028E4D14246D9
:1019D0002946204601F002F808B120206065A06881
:1019E00020B107E008E0FFE7032706E02068C168B0
:1019F00080680090606D00B1012784F851B084F8D0
:101A000050A038466BE70000F0B590F85050002425
:101A1000012D0CD0012580F8505090F8515000262F
:101A20004768012D0BD0B7F5827F06D101E0022077
:101A3000F0BD87680FB9042D01D0022429E0A9B1B7
:101A4000A2B19BB190F85150042D02D0052580F829
:101A50005150466501638386C38682638387C3874B
:101A6000C16829B10D4901640D4904E0012410E069
:101A70000C4901640C49416401684A6842F0E00283
:101A80004A6001680A68520603D40A6842F04002BC
:101A90000A6080F850602046F0BD00007D280008F4
:101AA000DD280008AD2800080D29000803480121A1
:101AB00001704168491C416070470000000000202F
:101AC00010B5401EB0F1807F01D3012010BD4FF052
:101AD000E02460610F21601701F0B6FE0020A061D4
:101AE00007202061002010BD7047704770B590F846
:101AF0003C20012A19D0012400F83C4F02224270F8
:101B000050F83C3C5A689D6822F070060A684968A3
:101B1000324325F0800529435A6050F83C2C9160EF
:101B2000447000210170084670BD022070BD10B5E0
:101B3000040003D094F83D0010B107E0012010BD6F
:101B4000002084F83C00204600F00CF8022084F8C5
:101B50003D00211D206801F049F9012084F83D0075
:101B6000002010BDF0B587B0044614216846FEF78A
:101B70005FFB324B256800243049103B02220126CE
:101B80002F48B5F1804F11D02E4FBD4224D10868A7
:101B900040F0020008600868002200F00200059092
:101BA00011461D20FFF7BAFA1D2026E00D6845F00A
:101BB00001050D60096801F001010591196841F006
:101BC0000101196019680092CDE9012401F00101B9
:101BD000CDE9046103942CE01B4FBD4211D108688C
:101BE00040F0040008600868002200F0040005903E
:101BF00011461E20FFF792FA1E20FFF781FA07B068
:101C0000F0BD124FBD42FAD10D6845F008050D60D8
:101C1000096801F008010591196841F00101196096
:101C200019680096CDE9012401F00101CDE90421F4
:101C300003946946FFF7F6F8E1E7000040380240F8
:101C4000000002400004004000080040000C00407A
:101C50000168CA6842F00102CA600068816801F048
:101C60000701062903D0016841F00101016000204D
:101C700070470168CA6822F00102CA600068016A00
:101C800041F21112114207D1016A9210114203D19F
:101C9000016821F0010101600020704770B5044621
:101CA00090F83C00012817D0012584F83C50022010
:101CB00084F83D002068826822F0770222F47F4297
:101CC00082600868502830D00DDC20284DD005DC1B
:101CD00098B310283BD148E0022070BD302844D092
:101CE000402834D139E0602828D0702806D0B0F5DB
:101CF000805F2CD0B0F5005F29D10AE0CB68D1E934
:101D00000121206801F0E3F82068816841F0770143
:101D100009E0CB68D1E90121206801F0D8F82068FA
:101D2000816841F48041816011E0CA684968206897
:101D300001F022F95021206807E016E0CA684968DE
:101D4000206801F06BF96021206801F0CAF884F87E
:101D50003D50002084F83C0070BDCA684968206886
:101D600001F00AF940212068EFE722680146104699
:101D7000EBE770472DE9F041044690F83C000D4632
:101D800001283DD0012684F83C60022084F83D0003
:101D9000AAB3042A46D02068082A55D0D5E90027DE
:101DA000E968036A23F480530362D0F81CC0036A15
:101DB0002CF4407C4CEA07274FF6FF7C27F4704751
:101DC0000CEA013139434FF4204723F4204307EA5A
:101DD00002321A43C16102622068C16921F4406184
:101DE000C1612068C169AA6841EA0221C0F81C10DB
:101DF00084F83D60002084F83C00BDE8F08101E0FB
:101E00000220FAE7D5E90012EB68206801F0C6F875
:101E10002068816921F00C01816120688169AA68CC
:101E200011430FE0D5E90012EB68206801F008F9D2
:101E30002068816921F44061816120688169AA6814
:101E400041EA02218161D3E7D5E9002C2F7B016AA9
:101E500021F480710162C169036A21F0030141EA42
:101E60000C0121F0F00C39074FF420674CEA1161A6
:101E700023F4206307EA02221A43C1610262206848
:101E8000C16921F00C01C1612068C169AA681143D0
:101E9000ACE710B5040003D094F83D0010B107E0A2
:101EA000012010BD002084F83C00204600F00CF812
:101EB000022084F83D00211D206800F097FF0120DA
:101EC00084F83D00002010BD704710B5044600683E
:101ED000012200F0EFFF2068816801F00701062968
:101EE00003D0016841F001010160002010BD10B570
:101EF00004460068002200F0DDFF2068016A41F21C
:101F00001112114207D1016A9210114203D10168E6
:101F100021F001010160002010BD70B50446006889
:101F200001694FF00005C943890715D4C168C94349
:101F3000890711D4E91E016101202077206880699A
:101F40008007204602D0FFF714FF04E000F098F865
:101F5000204600F096F8257720680169C9434907B3
:101F600017D4C168C943490713D46FF00401016154
:101F7000022020772068806910F4407F204602D03C
:101F8000FFF7F7FE04E000F07BF8204600F079F858
:101F9000257720680169C943090716D4C168C94378
:101FA000090712D46FF0080101610420207720682E
:101FB000C0698007204602D0FFF7DBFE04E000F096
:101FC0005FF8204600F05DF8257720680169C94375
:101FD000C90617D4C168C943C90613D46FF01001EC
:101FE0000161082020772068C06910F4407F2046F6
:101FF00002D0FFF7BEFE04E000F042F8204600F0F9
:1020000040F8257720680169C943C90708D1C1682C
:10201000C943C90704D1891E0161204600F032F886
:1020200020680169C943090609D4C168C943090682
:1020300005D46FF0800101612046FFF755FD20684F
:102040000169C943490609D4C168C943490605D491
:102050006FF040010161204600F0EEF82068016950
:10206000C94389060BD4C168C943890607D46FF0F8
:10207000200101612046BDE87040FFF736BD70BD0C
:102080007047704770B54249884236D1414C207C38
:1020900000281BD03E480021403800F08DF86060D9
:1020A0003B480421403800F087F820606068E16810
:1020B000002588420ED02068A16888420AD0607C42
:1020C00028B160682168884200D8257470BD01205D
:1020D000607470BDA07C401CA074A07C1428F8D94A
:1020E0002D48206002212D48FEF774FF012801D001
:1020F0006560EAE720686060E7E72549403188428B
:10210000E7D1244C303CA06A401CA062A06A00EEDB
:10211000100AB8EEC00A10EE100AFEF786F99FED1D
:10212000201B53EC112BFEF78EF89FED1F1B53EC79
:10213000112BFEF7FAF8FEF78BF900EE100A84ED8A
:102140000B0A94ED0B0A10EE100AFEF76EF941EC43
:10215000100B01F089FB9FED161B51EC100B53EC9B
:10216000112BFEF770F8FEF773F900EE100AA4F5D4
:10217000405084ED090A94ED080AD4ED090A30EEC6
:10218000200A80ED040ABDE87040032002F066B921
:10219000AC610020703000202048010000000240A7
:1021A000A7E8482EFF21194000000000008076407B
:1021B0009A9999999999B93F0246002041B1042909
:1021C00009D008290AD00C2901D11068006C704789
:1021D0001068406B70471068806B70471068C06B68
:1021E000704770B5044690F83C00012812D00125D4
:1021F00084F83C50022084F83D00204600F079FE2F
:1022000001004FF0000007D084F83D5084F83C00F6
:10221000012070BD022070BD2168CA6822F0400212
:10222000CA602168CA6822F48042CA6084F83D50BE
:1022300084F83C00002070BD7047FEE730B51A4AB4
:102240002020107050709FED190A1C4B82ED010A7E
:102250009FED170A002182ED020A9FED160A08463B
:1022600082ED030A9FED140A4FF4806482ED040AA4
:1022700082ED050A82ED060AC3F8081002EB80051C
:102280002C62401CA042F9DB0846996002EB8005F5
:1022900005F580552C62401CA042F7DB9860084889
:1022A00080ED090A816230BD40000020CDCC4C3E5B
:1022B000EC51383E9A99993E000000000000002041
:1022C0004030002010B501220849094801F069F8A2
:1022D000074801F053F8064C28B104F114012046D8
:1022E00001F056F8012084F8200010BD00080240DB
:1022F0008430002010B504460648B0EE060A80ED92
:10230000050A042002F0AAF82046BDE8104000F0BB
:1023100077BC0000400000202DE9F04786B0142172
:102320006846FDF785FF2B480024016841F0040151
:102330000160016801F004010591016841F00101AB
:102340000160016801F001010591016841F002019D
:1023500001600068DFF8808000F002000590002234
:1023600008214046FEF73BFEDFF870904FF4E07620
:10237000012231464846FEF732FE01223101404635
:10238000FEF72DFEDFF858A04FF480770022394683
:102390005046FEF724FE41F6084000900125CDE9A5
:1023A0000154694640460394FEF73CFD0096CDE992
:1023B0000154694648460394FEF734FD0097CDE981
:1023C0000154694650460394FEF72CFD06B0BDE863
:1023D000F087000030380240000002400008024050
:1023E0000004024009480849016000214160816001
:1023F000C1600161416181610162416281620A21C2
:10240000C162FFF79BB9000000300140BC600020B2
:102410000B480A49012201604FF48271416000219A
:102420008160C160C0E904125202C0E90621016264
:10243000416281620A21C162FFF780B90038004021
:102440001461002010B590B0002409940A940B94F4
:10245000142104A80C94FDF7EBFE2148039400948A
:10246000019402940D944FF080410E94C0E9001441
:10247000611EC0E9024104618461FFF758FB4FF41B
:102480008050099009A91648FFF708FC1448FFF787
:1024900000FD042004906020CDE90504079404A900
:1024A0000F480894FFF79DFE02200090CDE901043B
:1024B000002269460A480394FFF75CFC0120CDE93D
:1024C0000040042269460648FFF754FC2020CDE96D
:1024D0000D040DA90248FFF709FB10B010BD000064
:1024E0006C61002010B586B000241248009401945D
:1024F0000294039404940E49059401600121C0E9FB
:10250000011441F26801C0E903148461FFF70FFB75
:102510004FF48050009069460648FFF7BFFB0494D3
:1025200004A904480594FFF7E1FA06B010BD0000C5
:1025300000040040AC61002010B586B000241248B1
:10254000009401940294039404940E49059401604C
:102550000121C0E9011441F26801C0E9031484615A
:10256000FFF7E5FA4FF48050009069460648FFF700
:1025700095FB049404A904480594FFF7B7FA06B044
:1025800010BD000000080040EC61002010B590B0C4
:10259000002409940A940B94142104A80C94FDF7C8
:1025A00047FE214803940094019402940D941D4920
:1025B0000E94C0E90014611EC0E902410461846107
:1025C000FFF7B5FA4FF48050099009A91648FFF7B4
:1025D00065FB1548FFF75DFC042004905020CDE911
:1025E0000504079404A910480894FFF7FAFD012098
:1025F000CDE900400294002269460B480394FFF79E
:10260000B9FB022000900190042269460648FFF7BA
:10261000B1FB2020CDE90D040DA90348FFF766FAB0
:1026200010B010BD000C00402C620020FEE7704787
:1026300010B5034900F05CF8BDE8104000F07CBA2A
:102640006000002010B50446FEF708FA0349204652
:1026500000F04EF8BDE8104000F038BA60100020DD
:1026600010B50446FEF752FA1022044B11462046DC
:1026700000F08CF8BDE8104000F080BA6010002037
:102680002DE9F041184CBFEE080A2DED028B0746EC
:1026900084ED040A9FED158A4FF07F5604F1200562
:1026A00012E0032001F0DAFE2946384600F020F857
:1026B000294600F01DF8074600F03EFA94ED040AA2
:1026C00030EE080A84ED040A94ED040A10EE100AB4
:1026D000B042E6DBFEF796FABDEC028B3846BDE869
:1026E000F04100F08DBA000040000020CDCCCC3C81
:1026F0002DE9FC5F8B46804600F0DAFA0026B146F1
:102700001F4CDFF880A032E000252BE005EB4617D8
:10271000CDF80090CDF804905BF82730F2B2E9B222
:10272000012001F049FE00211748FFF745FDE06058
:1027300004211548FFF740FDA06001202074207C93
:102740000028FCD1616848F83710216808EBC70001
:102750004160C4F80490C4F8009084F8129084F8A2
:1027600011906D1C9AF80000A842CFDC761C9AF8F4
:102770000110B142C8DC00F0ADFA4046BDE8FC9F54
:1027800070300020400000206C6100202DE9FC41E9
:10279000984616460F46054600F08AFA002407EBD5
:1027A00046110094019458F82130F2B2F9B2012098
:1027B00001F002FE0B4901200874087C0028FCD1BE
:1027C00048682860086868604868C8600868886069
:1027D0004C600C608C744C7400F07CFA2846BDE8A8
:1027E000FC8100007030002010B59FED0C0A00F055
:1027F0002FFA0B4CB0EE040A042084ED050A01F018
:102800002DFE9FED080A042084ED050A01F026FE46
:10281000FEF7F8F9BDE81040FEF70CBA0000BE4222
:1028200040000020000000007047000010B50F4C71
:1028300094F8200028B9FFF745FD94F820000028FF
:1028400012D00A49094814310C4600F0C7FC074869
:1028500000F030FC0028FAD0044A2146BDE81040C0
:102860001C32024800F030BC10BD00008430002053
:102870000148FEF7E5BE0000BC6000200168C968A1
:10288000826B1180816B891C8163C18F491EC18756
:10289000C18F002909D101684A6822F040024A60CC
:1028A000C18E002901D100F049B870470168097B49
:1028B000826B1170816B491C8163C18F491EC18776
:1028C000C18F002909D101684A6822F060024A607C
:1028D000C18E002901D100F031B87047016B026848
:1028E0000988D160016B891C0163C18E491EC186B4
:1028F000C18E002909D101684A6822F080024A602D
:10290000C18F002901D100F019B87047016B02682E
:1029100009781173016B491C0163C18E491EC18680
:10292000C18E002909D101684A6822F080024A60FC
:10293000C18F002901D100F001B8704738B50446B5
:10294000214845F6C0510068B0FBF1F064214843CE
:102950000090FEF749FB02462068416821F0200103
:102960004160009888B1401E009020688068800710
:10297000F7D56421204600F031F818B1606D40F0C1
:1029800020006065A06828B108E0606D40F020007C
:102990006065EEE72068C16880680090616D012085
:1029A00029B184F851002046FEF748FE38BD94F85E
:1029B000511084F851000429204602D0FFF776F820
:1029C00038BDFEF771FF38BD3800002010B5806BB0
:1029D0000021C187C186FEF731FE10BD38B504461F
:1029E0001248134B0068B0FBF3F04FF47A7358436E
:1029F00000906068B0F5827F0DD10B4600920022F6
:102A00008021204600F016F870B1606D40F0200083
:102A10006065032038BD009830B1401E00902068EA
:102A20008068C0430006F6D5002038BD380000207D
:102A300000366E012DE9F0411D4617460E4604464C
:102A4000DDF8188008E0681C06D0FEF7CDFAA0EB90
:102A50000800A8420BD255B12068806836EA000011
:102A600030D00020B842EED10020BDE8F0812068CF
:102A7000416821F0E00141606068B0F5827F0BD1D0
:102A8000A068B0F5004F02D0B0F5806F04D1206887
:102A9000016821F040010160A06AB0F5005F09D132
:102AA0002068016821F4005101602068016841F448
:102AB00000510160012084F85100002084F850008A
:102AC0000320D2E70120CDE77047000070B516491A
:102AD00000234FF4806400BF01EB830202F58052B3
:102AE000156A00EB830202F5005215605B1CA342DD
:102AF000F2DB02464FF4405311460C48FEF784FFC8
:102B00000B4C012208212046FEF769FA0949087892
:102B10000028FCD00020087002462046BDE8704026
:102B20000821FEF75CBA000040000020BC600020D5
:102B30000000024000000020024610B54FF4005390
:102B400011460B48FEF760FF0A4C0122082120467F
:102B5000FEF745FA084908780028FCD000200870E4
:102B600002462046BDE810400821FEF738BA0000B2
:102B7000BC6000200000024000000020024610B5AA
:102B8000082311460A48FEF73FFF0A4C012208219C
:102B90002046FEF724FA084908780028FCD00020D7
:102BA000087002462046BDE810400821FEF717BA1B
:102BB000BC60002000000240000000200C4910B55D
:102BC00004230A460B48FEF71FFF0B4C0122082185
:102BD0002046FEF704FA094908780028FCD00020B6
:102BE000087002462046BDE810400821FEF7F7B9FC
:102BF000A0300020BC600020000002400000002047
:102C000010B504464FF0AA3020606060FDF7FAFF6F
:102C10002046BDE81040FFF78FBF10B504464FF0C7
:102C2000AA3020606060FDF7EDFF2046BDE810404F
:102C3000FFF74CBF10B504464FF0AA30206060602B
:102C4000FDF7E0FF2046BDE81040FFF797BF00000A
:102C500070B5154C05202DED048BB0EE409ADFEDDC
:102C6000108A9FED100AB0EE688A84ED060A01F022
:102C7000F5FB0E4D06E000BFFFF7D8FD95ED078A86
:102C8000FFF79CFFB4EEC98AF1EE10FAF4D3C4ED5D
:102C9000068A0520BDEC048BBDE8704001F0DEBB68
:102CA000000000006666E63F4000002084300020FF
:102CB00010B500210648FFF708F904210448FFF782
:102CC00004F90348BDE810404030FEF7C1BF0000E2
:102CD0006C61002010B500210648FFF708F90421B7
:102CE0000448FFF704F90348BDE810404030FEF700
:102CF000C0BF00006C610020FEF77CB930B593B016
:102D000030216846FDF794FA14210CA8FDF790FADB
:102D100019480025016841F080510160006800F009
:102D2000805011901548016841F4804101600068AD
:102D3000022400F4804011900120039010200094A0
:102D400006940490CDE907504FF4A870CDE909042A
:102D500004200B906846FEF7E3FA0CA90F2081E8E7
:102D600031004FF4A0500F90E002109005210CA804
:102D7000FEF706FA13B030BD403802400070004044
:102D80001048016841F4700101600F48016841F08A
:102D9000010101600C4A00210832116002680B4BEE
:102DA0001A400260031D0A4A1A60026822F4802257
:102DB000026005480C3001600249580680390860FD
:102DC0007047000088ED00E000380240FFFFF6FE8B
:102DD000103000240148FFF7A0B80000AC610020CB
:102DE0000148FFF79AB80000EC610020F0B50268D6
:102DF000254C264D264E274F274B4FF0804CA042A6
:102E000009D0604507D0A84205D0B04203D0B842EF
:102E100001D0984204D122F0700E4A6842EA0E02B4
:102E2000A0421BD0604519D0A84217D0B04215D09F
:102E3000B84213D0984211D0184DA8420ED0184D68
:102E4000A8420BD0174DA84208D0174DA84205D074
:102E5000164DA84202D0164DA84203D122F4407567
:102E6000CA682A434D6922F080022A4302608A68B8
:102E7000C2620A688262A04201D0984201D1096907
:102E8000016301214161F0BD0000014000040040E8
:102E900000080040000C00400004014000400140D8
:102EA000004401400048014000180040001C004060
:102EB0000020004010B501F01F030121046A994071
:102EC0008C430462016A9A401143016210BD10B53F
:102ED000846842EA032224F47F440A432243826046
:102EE00010BD826822F070020A4342F0070181603F
:102EF000704710B503689A6822F070044A6822434C
:102F000022F007040A6822439A604A6812F00F0F01
:102F100030D11211082A2DD2DFE802F02C2C2C2CF3
:102F20000B2127040B69D1E902210068FFF7CFFFCD
:102F300020E00A68052A10D00268136A146A24F097
:102F40000104146202689469096924F0F00444EAF7
:102F500001119161006803620CE0012010BD0A6953
:102F60008968006800F008F804E00A698968006868
:102F700000F054F8002010BD10B5036A046A24F074
:102F800001040462846924F0F00444EA021423F08A
:102F90000A020A438461026210BD000070B5046A2F
:102FA00024F0010404628469056A154EB04214D00D
:102FB000B0F1804F11D0134EB0420ED0124EB0423D
:102FC0000BD0124EB04208D0114EB04205D0114E77
:102FD000B04202D0104EB04203D124F00304144397
:102FE00001E044F001041A0724F0F00444EA1262FC
:102FF00025F00A0301F00A0119438261016270BDE4
:10300000000001400004004000080040000C0040A7
:1030100000040140004001400018004010B5036A60
:1030200023F0100303628369046A23F4704343EAC4
:10303000023224F0A00343EA01118261016210BD53
:1030400030B5046A24F0100404628469056A24F42B
:10305000407444EA022222F470444FF6FF7202EAFE
:1030600003322243A02425F0A00304EA01111943EE
:103070008261016230BD70470C48016821F08071A7
:103080000160016841F0807101600948016821F028
:1030900001010160016841F001010160002141600E
:1030A000416800BF00BF4068401A7047FCED00E077
:1030B000001000E000F087B90078282801D0002037
:1030C00070470120704700002DE9FE43804600252F
:1030D00016460F462C460846FFF7EEFF002821D083
:1030E000404600F070F900281CD0404600F09BF9E3
:1030F0003946404600F026FABE21404600F05AFA12
:103100006F46404600F07FF93855641CE4B2092C44
:10311000F7D30821684600F017F99DF8081081429E
:1031200002D00020BDE8FE83BDF80040404600F01C
:103130007AF9200403D5E043401C84B201259DF8B0
:103140000400C4F30222C0F3411144F30710093113
:1031500040EA0210092916D00A291DD00B2926D0D1
:103160000C292DD05FF000009FED1A0A00EE900AA6
:10317000F8EEE00A30EE800A0DB1B1EE400A86EDBD
:10318000000A0120CEE7C4F3C00100EE101AF6EEEB
:10319000000AB8EE400A07E0C4F3810100EE101AFD
:1031A000F5EE000AB8EE400A20EE200ADEE7C4F38E
:1031B000420100EE101AF4EE000AB8EE400AF3E7FE
:1031C00004F00F0100EE101ADFED030AB8EE400A1A
:1031D000EAE7000000007F430000803D70B505462F
:1031E0000C460846FFF768FF00280BD0284600F081
:1031F0001AF92146284600F0A5F94421284600F096
:10320000D9F9012070BD000002490844C0F38F20A5
:10321000704700000000FEBF00B5FFF7F5FF012179
:103220008140024802681143016000BD303802400D
:103230002DE9F04F9E464FF400330344C3F3872734
:10324000DDF824B000234FF001094FF0030A00BF5E
:1032500009FA03F50D4232D01C4E36F817402C43C4
:1032600026F81740D0F80CC05E000AFA06F42CEAE3
:10327000040C0BFA06F84CEA080CC0F80CC0D0F8A5
:1032800000C002FA06F82CEA040C4CEA080CC0F85C
:1032900000C0012A01D0022A11D1D0F804C0ADB279
:1032A0002CEA050C0EFA03F5ADB24CEA050CC0F899
:1032B00004C08568A5430A9CB440254385605B1C17
:1032C000DBB2102BC4D3BDE8F08F00008462002075
:1032D0002DE9FC411546DDE908760C00804608D052
:1032E000FFF79AFFCDE900762A4621464046FFF7D0
:1032F0009FFFBDE8FC8170B500220125032305FA7C
:1033000002F40C4205D00468560003FA06F6B443F2
:103310000460521CD2B2102AF1D370BDF0B5002265
:103320000123032403FA02F50D4208D00568560074
:1033300004FA06F7BD4303FA06F73D430560521C45
:10334000D2B2102AEED3F0BD30B50446002011E011
:1033500014F8013B5FF0080280EA030515F0010F45
:103360004FEA500001D080F08C005B08521E12F032
:10337000FF02F1D1491EC9B2EAD230BD10B50246F2
:1033800000F074F8BDE81040F021104600F073B86A
:10339000002283185B7A8B54521CD2B2082AF8D3CD
:1033A00070477CB515460E460446FFF765FE0120C2
:1033B000009002460190002329463046FFF788FF1F
:1033C0002660A5807CBD70B50446808821680025F4
:1033D00000048861A1882068FFF7A0FF0320FDF7A3
:1033E000FBFBA1882068FFF786FF0A20FDF7F4FBAE
:1033F00020680069A188084200D001253220FDF72D
:10340000EBFB284670BD70B505460824002006E099
:1034100046082846FFF7D7FF46EAC010C0B2641E30
:10342000E4B2F5D270BD10B504468088216800046E
:103430008861A1882068FFF771FF4FF4F070FDF7F5
:10344000CBFBA1882068FFF756FF4620FDF7C4FBA1
:1034500020680069A188084201D0012400E000240E
:103460004FF4CD70FDF7B8FB204610BD00218171EF
:103470000172C17170472DE9F04704464FF0000911
:103480000125007A88464F462E46CA46E0BB2046B4
:10349000FFF7C9FFC0BB4146204600F08BF820462D
:1034A000FFF791FF80462046FFF78DFF4146B8F1B8
:1034B000010F01D1012830D0804502D001290AD066
:1034C00017E0A079A8420CD904EB0700407A3042FB
:1034D00008D04FF0010104EB0700427A42EA0602ED
:1034E0000AE0F6D04FF00001A946092D01D284F878
:1034F0000790E019427AB2434272204600F032F857
:103500006D1CEDB2700000E013E010F0FF0602D178
:103510007F1CFFB20126082FC1D3412D09D35FEADA
:103520000900A07101D101202072617A01200029D7
:1035300006D184F806A084F808A084F807A000202B
:10354000BDE8F08770B50D460646552100F032F80B
:1035500000243046295D00F02DF8641CE4B2082CEC
:10356000F7D370BD10B50446808802042068002996
:103570008261A18820680AD0FFF7D0FE0A20FDF7FB
:103580002BFBA1882068FFF7B6FE372009E0FFF784
:10359000C5FE4120FDF720FBA1882068FFF7ABFEA8
:1035A0000520FDF719FBA1882068BDE81040FFF752
:1035B000A2BE000070B50C460646082506E000BF16
:1035C00004F001013046FFF7CDFF64086D1EEDB237
:1035D000F6D270BD70B5054600242846FFF732F8D4
:1035E000641C0A2CF9DB2846BDE87040FFF715BBC8
:1035F00070B51A4E00242DED028B9FED168B2046E0
:10360000FCF702FF53EC182BFCF71DFEFCF720FF24
:1036100000EE100A052086ED060A00F01FFF0025C7
:10362000FFF704F9FFF7CAFA6D1C642DF8DB641C80
:10363000082CE4DB05209FED0A0A86ED060A00F05F
:103640000DFFFDF7DFFABDEC028BBDE87040FDF722
:10365000F1BA0000000000000000D03F4000002050
:103660000000000070B5194C05202DED028B9FED78
:10367000168A84ED068A00F0F1FE0025FFF7D6F8E1
:10368000FFF79CFA6D1C642DF8DBB7EE040A84ED9D
:10369000060A052000F0E2FE00254FF47A7600BF0E
:1036A000FFF7C4F8FFF78AFA6D1CB542F8DB84ED2A
:1036B000068A052000F0D2FEFDF7A4FABDEC028BCD
:1036C000BDE87040FDF7B6BA0000000040000020E1
:1036D00070B5064600243046FEF7C2FF641C0A2C73
:1036E000F9DB0D4DB0EE040A042085ED050A00F06B
:1036F000B5FE00243046FEF7B3FF641C282CF9DB2E
:1037000004209FED060A85ED050A00F0A7FE30466D
:10371000BDE87040FFF78EBA4000002000000000B6
:1037200070B5074D064600243046FEF799FF641C2D
:10373000AC42F9DB3046BDE87040FFF77BBA0000D1
:10374000A086010010B50024FFF770F8FFF736FAE5
:10375000641C642CF8DBFDF755FABDE81040FDF75A
:1037600069BA2DE9FC41002401262546F70200EE46
:10377000104A0022CDE90056B8EEC00A11461046A4
:10378000BDEEC00A10EE103A00F016FE0120FDF763
:1037900033FB641CBC42EADBBDE8FC81FEE70000B1
:1037A000074A10B50523511F0648FEF72DF90448B6
:1037B000153801780029FCD00021017010BD0000EF
:1037C00015000020BC6000202DE9F041104E80461D
:1037D00006F5405596ED040A0E4885ED080AFEF7F9
:1037E00037FA00244FF4FA77FDF70CFA641CBC4258
:1037F000FADB0848FEF73DFA95ED080A86ED040A63
:10380000FDF700FA4046BDE8F041FFF7F9B90000C6
:1038100040000020EC61002003B4019841000098B2
:1038200050EAC12018BF04204A0D18BF40F0010023
:1038300040F2FF72B2EB515F08BF40F00200012876
:1038400008BF052002B070470907090E002804DBF5
:1038500000F1E02080F80014704700F00F0000F144
:10386000E02080F8141D704710B52F499FED2C1BE8
:103870002DED020B84B0059820F000408842DCBF9B
:1038800000209DED040B32DD2849884209D10498BF
:1038900040B94FF0010000F06FFC00F03DFC06B0B5
:1038A00010BD05DB9DED040B00F02AFC06B010BD39
:1038B00068469DED040B00F03BF810F0030011D0BA
:1038C000012818D09DED021B9DED000B02281AD097
:1038D00000F04AFA51EC100B81F0004106B041ECC7
:1038E000100B10BD9DED021B9DED000B012000F0A3
:1038F0006FFB06B010BD9DED021B9DED000B00F0AF
:1039000033FA06B010BD012000F062FB51EC100B41
:1039100081F0004106B041EC100B10BD000000002A
:103920000000000000000000FB21E93F0000F07FE4
:103930002DE9F14F04462DED020B2DED088B8AB0D9
:103940009FEDE70B80ED020B139EE74826F0004544
:1039500085420ADC9DED120B002084ED000B0AB0BD
:10396000BDEC088B03B0BDE8F08FE0489FEDE0AB05
:103970009FEDE1BBA84247DDE14F9FEDE39B9FED4B
:10398000E48B9DED120B53EC1A2B51EC100B002E17
:103990001CDDFCF7E0FE41EC100BBD4208D053ECFF
:1039A0001B2B51EC100BFCF7D6FEC4E900010BE019
:1039B00053EC192B51EC100BFCF7CDFE53EC182BEC
:1039C000FCF7C9FEC4E900010120C8E7FCF722FEAC
:1039D00041EC100BBD4208D053EC1B2B51EC100BEB
:1039E000FCF718FEC4E900010BE053EC192B51EC75
:1039F000100BFCF70FFE53EC182BFCF70BFEC4E981
:103A000000014FF0FF30AAE7C348A84279DB9DEDE3
:103A1000120B51EC100B00F0BCFB41EC180B9FEDAE
:103A2000C00B53EC102BFCF70EFC9FEDBF1B53ECAF
:103A3000112BFCF7EFFDFCF7A1FE0746FCF7E4FCB9
:103A400041EC190B53EC1A2BFCF7FDFB53EC182B34
:103A5000FCF784FE41EC180B53EC1B2B51EC190BBB
:103A6000FCF7F1FBDFF8C8A241EC100B4FEA155848
:103A70000125FA4453EC102B51EC180BFCF76BFEAC
:103A8000032DC4E900013DD0C1F30A5005EB4511F7
:103A9000A8EB00001139814234DA0AEB051BB0EEC5
:103AA00048AA9BED000BF0EE68AA53EC102B51ECEA
:103AB000190BFCF7C8FB41EC1B0B51EC1A0B53EC38
:103AC0001B2BFCF748FE41EC180B51EC1A0B53EC86
:103AD000182BFCF740FE53EC1B2BFCF73CFE9BED38
:103AE000020B41EC1A0B53EC102B51EC190BFCF7A9
:103AF000AAFB53EC1A2BFCF72EFE41EC100B6D1CAD
:103B0000B8E70EE0002EA8BF3846BFF628AF94ED08
:103B1000000B51EC100B81F00041C4E90001784228
:103B20001DE7C6F3130040F4801EC6F30A50A0F24E
:103B3000F530471100F01F05C5F12000DDF848B051
:103B400008900020069007900520EC467949002D4A
:103B500007EB0002794408BF51F8221009D051F850
:103B6000223001EB8201AB404A68089922FA01F148
:103B70001943A1FB0E26A1FB0B131A449A4234BF32
:103B80000123002303EB06080CEB8003D3E901A615
:103B90000E448E4234BF0121002192448A4411B167
:103BA000924502D903E0924501D2012100E00021B3
:103BB000C3E901A641444CF82010011EA0F1010008
:103BC000C4DC029800F10050850F0298DDE903671C
:103BD0008000DDF81480FCF717FC41EC1A0B30462E
:103BE000FCF7BFFD9FED541B53EC112BFCF72BFB97
:103BF00041EC1B0B3846FCF7B4FD9FED511B53EC19
:103C0000112BFCF720FB41EC180B4046FCF7A9FDFB
:103C10009FED4D1B53EC112BFCF715FB41EC190BE1
:103C200051EC180B53EC192BFCF7F4FC53EC1B2B49
:103C3000FCF7F0FC53EC1A2BFCF7ECFCCDE9080187
:103C4000002008909DED080B53EC1A2B51EC100B43
:103C5000FCF781FD53EC1B2BFCF77DFD53EC182B7F
:103C6000FCF779FD53EC192BFCF778FD9FED381B21
:103C700053EC112BFCF7E7FA9FED370B41EC180BD7
:103C800053EC102B9DED080B51EC100BFCF7DBFAFD
:103C900053EC182BFCF7BEFC9FED310B41EC180BDD
:103CA00053EC102B9DED080B51EC100BFCF7CBFAED
:103CB00053EC182BFCF7AEFC41EC100B139810F0F2
:103CC000004F06D06D4251EC100B81F0004141ECE9
:103CD000100B284684ED000B41E6000000000000B8
:103CE0000000000000000000FB21E93F7CD90240F9
:103CF00000004054FB21F93F3163621A61B4D03DAA
:103D0000FB21F93F000000000000601A61B4D03DC3
:103D10007370032E8A19A33BFB2139410000000078
:103D200083C8C96D305FE43F000000000000E03F41
:103D30001A0C0000680B0000000000000000103E9C
:103D4000000000000000103C000000000000103ADD
:103D5000182D4454FB21F93D3326A611460B113C86
:103D600000000054FB21F93D10B52DED040B2DEDA5
:103D7000088B82B0B0EE419AF0EE619A0B9820F079
:103D800000449FED4BABB4F1795F11DA9DED0A0B66
:103D900051EC100BFCF7F2FC002801BFB0EE4A0A10
:103DA000F0EE6A0A02B0BDEC088B04BF04B010BD8F
:103DB0009DED0A0B53EC102B51EC100BFCF743FA62
:103DC00041EC180B3C480621B0EE480AF0EE680AB8
:103DD000784400F081F853EC182B51EC100BFCF7F1
:103DE00032FA9DED0A0B41EC1B0B53EC192B51ECF5
:103DF000100BFCF728FA41EC190B53EC1B2B51EC80
:103E0000180BFCF720FA53EC192BFCF7A4FC9FEDE0
:103E10002C0B41EC190B53EC102B51EC180BFCF74D
:103E200012FA41EC100B2848844210DA53EC192B9B
:103E300051EC100BFCF78FFC53EC1A2BFCF78EFCAB
:103E400041EC100B02B0BDEC088B04B010BD1F4854
:103E5000A042BCBF9FED1E1B8DED001B06DBA4F531
:103E600000100190002000909DED001B51EC100B04
:103E700053EC112BFCF76FFC9DED000B41EC180B84
:103E800053EC102B51EC1A0BFCF765FC41EC1A0BB0
:103E900053EC192B51EC180BFCF75DFC53EC1A2B6F
:103EA000FCF75CFC41EC100BCCE7000000000000CC
:103EB000000000000000F03F8C080000000000003F
:103EC000000000000000E03F3333D33F0000E93F33
:103ED000000000000000D23F70B504462DED028BBB
:103EE0004D1E00EBC500B0EE408AF0EE608A90ED0A
:103EF000000B35F0060017D053EC182B51EC100BCB
:103F0000FCF7A1F941EC100B6D1E04EBC50090ED20
:103F1000001B51EC100B53EC112BFCF77BFB41EC1D
:103F2000100B35F00600E7D1022D36D0042D1CD041
:103F3000062D1CBFBDEC028B70BD53EC182B51EC51
:103F4000100BFCF780F994ED0A1B53EC112BFCF7D6
:103F500061FB53EC182BFCF776F994ED081B53EC3E
:103F6000112BFCF757FB41EC100B53EC182B51ECC9
:103F7000100BFCF768F994ED061B53EC112BFCF7C2
:103F800049FB53EC182BFCF75EF994ED040B53EC52
:103F9000102BFCF73FFB41EC100B53EC182B51ECB2
:103FA000100BFCF750F994ED021B53EC112BFCF7AE
:103FB00031FB53EC182BFCF746F994ED001B53EC46
:103FC000112BFCF727FBBDEC028B41EC100B70BDF5
:103FD00031B504462DED040B2DED0A8BB0EE41BA40
:103FE000F0EE61BA0B989DED0A0B20F00040B0F1A5
:103FF000795F0DDA51EC100BFFF70EFC042808BFB7
:1040000000F09AF89DED0A0BBDEC0A8B05B030BDAF
:1040100053EC102B51EC100BFCF715F941EC180B7D
:104020009DED0A0B53EC182B51EC100BFCF70BF920
:1040300041EC190B2C48B0EE480AF0EE680A052155
:104040007844FFF749FF9FED2ACBB0EE40AAF0EE8F
:1040500060AA9CB353EC1C2B51EC190BFCF7F3F842
:1040600041EC1C0B53EC1A2B51EC190BFCF7EBF841
:104070009FED210B41EC190B53EC102B51EC1B0B5A
:10408000FCF7E1F853EC192BFCF765FB53EC182B0C
:10409000FCF7D9F853EC1B2BFCF75DFB53EC1C2B06
:1040A000FCF759FB9DED0A1B53EC112BFCF756FB5B
:1040B000BDEC0A8B05B041EC100B30BDFFE753ECB3
:1040C0001A2B51EC180BFCF7BEF853EC1C2BFCF729
:1040D000A1FA53EC192BFCF7B6F89DED0A1B53EC33
:1040E000112BFCF797FAE3E714070000000000002B
:1040F000495555555555C5BF000000000000E03F2B
:1041000010B553EC102B51EC100BFCF783FA41EC7B
:10411000100B10BD000000009FED050B10B553EC17
:10412000102B51EC100BFCF700F941EC100B10BDFB
:1041300000000000000000009FED050B10B553ECDF
:10414000102B51EC100BFCF77EF841EC100B10BD5E
:10415000000000000000001002E008C8121F08C1A3
:10416000002AFAD170477047002001E001C1121FF8
:10417000002AFBD170470000014908607047000029
:104180003C0000200005800C010201EB102080B2F1
:10419000704782B0CDE9000121F0004001909DED13
:1041A000000B02B051EC100B704700001CB5FCF77F
:1041B00055FFFEF7A3FDFEF7AFF8FEF713F9FEF784
:1041C00027F9FEF73FF9FEF7E1F900247249009460
:1041D0007048019408600846FCF773FD00940022C3
:1041E00069466D480194FCF74BFD9FED6C0AB0EEFB
:1041F000401ADFED6B0A00F00BFA0346002211466D
:104200006548FCF7A3FD00216348FCF7ACFDFEF711
:1042100069F9FEF791F9FEF711F8FEF753F801225C
:1042200011026048FCF7DBFE002000F017F90120C6
:1042300000F014F9022000F011F9032000F00EF94B
:10424000042000F00BF9584EDFF86081A6F1090553
:10425000A6F1150705F10409FFF7A2FA3078787086
:1042600071782970B1786970F178A9703179E97045
:10427000132874D2DFE800F00A191F252B2F3340D2
:104280004448555F6874787B7F82850089F80040D8
:10429000112189F80110222189F80210442189F89E
:1042A0000310882189F80410D6E795ED000A002054
:1042B00088ED010A32E095ED000A012088ED020A3E
:1042C0002CE095ED000A022088ED030A26E095ED2A
:1042D000000A40461FE0FFF744FABB2103E03448E0
:1042E000FEF7A6F9AA21484689F8001044708470A8
:1042F000C47089F80440AFE72D48FEF7C1F9ABE779
:104300002B48FCF7A1FAA7E798ED040ADFED290A8C
:10431000404630EE200A80ED040A032000F09EF8AB
:104320009AE795ED000A224888ED070A98ED070AFA
:10433000FDF7E0FF90E795ED000A012188ED070AFF
:104340001B48FEF751FA87E795ED000A164888EDFD
:10435000070A98ED070AC01DFFF7BAF97CE714E0D9
:104360001348FFF737F977E7FFF7ECF974E71048E0
:10437000FFF7D6F970E7FFF73BF96DE7FFF772F942
:104380006AE70B48FFF720FA66E7484689F80040DD
:10439000ACE7000000740040A860002000000000AE
:1043A0003333534000040240150000204000002039
:1043B000A83000200AD7233CFEB50024DDE90865BB
:1043C0008DF800408DF804408DF80840B3F5006F7B
:1043D00002DB40F2FF7402E0002B00DB9CB2C00164
:1043E00001F01F0140EA8100C2F3C10108438DF8CA
:1043F0000000C4F3841040EA42108DF80400A000CD
:1044000006F0010140EA410005F001010843114DA9
:104410008DF808004FF48064002221462846FCF7FE
:10442000DEFDA6103346012269460B48FDF73DFA32
:104430003346012201A90848FDF737FA3346012225
:1044400002A90548FDF731FA012221462846FCF76A
:10445000C6FDFEBD00000240146100202DE9F041C0
:104460002DED028BDFED600A614D604AAE15614FA4
:104470009FED618A614C06287ED2DFE800F0031BC5
:10448000344C729294ED010AB0EE481A00F0C0F874
:10449000FFF778FE5080002240212846FCF79FFD60
:1044A000524933460222891C5548FDF7FEF9012284
:1044B000402116E0B0EE481A9FED520A00F0A8F82D
:1044C000FFF760FE5080002280212846FCF787FD20
:1044D000464933460222891C4948FDF7E6F9012284
:1044E0008021284637E094ED030AB0EE481A00F028
:1044F0008FF8FFF747FE5080002231462846FCF730
:104500006EFD3A4933460222891C3D48FDF7CDF93C
:1045100001223146E5E794ED040AF1EE040AB0EE1B
:10452000481A30EE200AF2EE040A00F071F8FFF7A4
:1045300029FE50804FF48054002221463846FCF773
:104540004EFD2A4933460222891C2D48FDF7ADF95C
:10455000012221463846BDEC028BBDE8F041FCF754
:104560003EBD94ED050AB0EE481AF1EE040A00F0E3
:104570004FF8FFF707FE00E031E050804FF4006590
:10458000002229463846FCF72AFD18493346022204
:10459000891C1B48FDF789F9012229463846FCF79A
:1045A0001EFD94ED060A184910EE100A884203DD3C
:1045B000B0EE040A84ED060A94ED060AB0EE481A3D
:1045C000DFED120A00F024F8BDEC028B0346BDE8D3
:1045D000F04100220A4811466C38FCF7B7BBBDEC2D
:1045E000028BBDE8F0810000295C4F4000000020F4
:1045F00000080240000002400000000040000020CF
:1046000014610020CDCC8C3E000020403333534059
:10461000B4EEE00A0020F1EE10FA02DD40F6FF7081
:104620007047B4EEC10AF1EE10FAF9D330EEC11AB8
:10463000DFED051AC1EE810A20EE800ABCEEC00A49
:1046400010EE100A80B270470000804500000000A4
:104650000000000001020304060708090000000032
:104660004C5555555555A53F7751C1166CC156BF90
:104670009015CB19A001FA3EAD529C804F7E92BEA0
:10468000C4B1B4BD9EEE213ED43888BEE9FAA8BDBF
:1046900000004054FB21F93F3163621A61B4D03D00
:1046A0000000601A61B4D03D7370032E8A19A33BD9
:1046B0000000002E8A19A33BC14920259A837B392B
:1046C00000000000000000006E83F9A22915444E8E
:1046D000D15727FCC0DD34F5999562DB4190433C0E
:1046E000AB6351FE61C5BBDE3A6E24B7E0D24D42EA
:1046F000EA2E49061C92D1091CEB1DFE3EA729B1EA
:10470000F53582E88444BB2E26709CE9417E5FB477
:1047100039D69139F43953838B5F849C3B28F9BD9A
:10472000FF97F81F0F9805DE8B112FEF1F6D0A5AA8
:10473000CF7E366DB709CB27663F464F2DEA5F9E89
:10474000C7BA27757BF1E5EBF739073DEA92528A44
:10475000B15FFB6B085D8D1FA6F810111111813F31
:10476000D561C119A0012ABF7DFEB157E31DC73E27
:10477000EB9C2B8AE6E55ABE7CD5CF5A3AD9E53D6B
:10478000A047000800000020400000005841000839
:10479000E047000840000020606600006841000813
:1047A0000000000000000000000000000000000009
:1047B0000000AB00CD000000000000000000000081
:1047C00000000000000000000000000001000000E8
:1047D00010000000000000000024F40000000000B1
:040000050800018965
:00000001FF
